{
  "contractName": "HelloWorld",
  "abi": [
    {
      "constant": false,
      "inputs": [],
      "name": "getBalance",
      "outputs": [
        {
          "name": "balance",
          "type": "uint256"
        }
      ],
      "payable": false,
      "stateMutability": "nonpayable",
      "type": "function"
    },
    {
      "constant": true,
      "inputs": [],
      "name": "owner",
      "outputs": [
        {
          "name": "",
          "type": "address"
        }
      ],
      "payable": false,
      "stateMutability": "view",
      "type": "function"
    },
    {
      "constant": false,
      "inputs": [],
      "name": "ownerAddress",
      "outputs": [
        {
          "name": "",
          "type": "address"
        }
      ],
      "payable": false,
      "stateMutability": "nonpayable",
      "type": "function"
    },
    {
      "constant": false,
      "inputs": [],
      "name": "ownerBalance",
      "outputs": [
        {
          "name": "",
          "type": "uint256"
        }
      ],
      "payable": false,
      "stateMutability": "nonpayable",
      "type": "function"
    },
    {
      "constant": false,
      "inputs": [
        {
          "name": "name",
          "type": "string"
        }
      ],
      "name": "sayHello",
      "outputs": [
        {
          "name": "",
          "type": "string"
        }
      ],
      "payable": false,
      "stateMutability": "nonpayable",
      "type": "function"
    },
    {
      "constant": true,
      "inputs": [],
      "name": "greet",
      "outputs": [
        {
          "name": "",
          "type": "string"
        }
      ],
      "payable": false,
      "stateMutability": "pure",
      "type": "function"
    },
    {
      "constant": false,
      "inputs": [],
      "name": "deposit",
      "outputs": [],
      "payable": true,
      "stateMutability": "payable",
      "type": "function"
    },
    {
      "constant": false,
      "inputs": [
        {
          "name": "number",
          "type": "uint256"
        }
      ],
      "name": "sendEther",
      "outputs": [
        {
          "name": "result",
          "type": "bool"
        }
      ],
      "payable": false,
      "stateMutability": "nonpayable",
      "type": "function"
    },
    {
      "inputs": [],
      "payable": true,
      "stateMutability": "payable",
      "type": "constructor"
    },
    {
      "payable": true,
      "stateMutability": "payable",
      "type": "fallback"
    },
    {
      "anonymous": false,
      "inputs": [
        {
          "indexed": false,
          "name": "data",
          "type": "bytes"
        }
      ],
      "name": "fallbackTrigged",
      "type": "event"
    },
    {
      "anonymous": false,
      "inputs": [
        {
          "indexed": false,
          "name": "to",
          "type": "address"
        },
        {
          "indexed": false,
          "name": "value",
          "type": "uint256"
        },
        {
          "indexed": false,
          "name": "result",
          "type": "bool"
        }
      ],
      "name": "sendEvent",
      "type": "event"
    }
  ],
  "bytecode": "0x6060604052336000806101000a81548173ffffffffffffffffffffffffffffffffffffffff021916908373ffffffffffffffffffffffffffffffffffffffff160217905550610728806100536000396000f30060606040526004361061008e576000357c0100000000000000000000000000000000000000000000000000000000900463ffffffff16806312065fe0146100e25780638da5cb5b1461010b5780638f84aa0914610160578063bedcf003146101b5578063c3a9b1c5146101de578063cfae3217146102b4578063d0e30db014610342578063f88d331a1461034c575b7ffcce2a7c4e078f3996a0f603e266b3637cc3c0760b935787b4e8153eac3a2407600036604051808060200182810382528484828181526020019250808284378201915050935050505060405180910390a1005b34156100ed57600080fd5b6100f5610387565b6040518082815260200191505060405180910390f35b341561011657600080fd5b61011e6103a6565b604051808273ffffffffffffffffffffffffffffffffffffffff1673ffffffffffffffffffffffffffffffffffffffff16815260200191505060405180910390f35b341561016b57600080fd5b6101736103cb565b604051808273ffffffffffffffffffffffffffffffffffffffff1673ffffffffffffffffffffffffffffffffffffffff16815260200191505060405180910390f35b34156101c057600080fd5b6101c86103f4565b6040518082815260200191505060405180910390f35b34156101e957600080fd5b610239600480803590602001908201803590602001908080601f01602080910402602001604051908101604052809392919081815260200183838082843782019150505050505091905050610434565b6040518080602001828103825283818151815260200191508051906020019080838360005b8381101561027957808201518184015260208101905061025e565b50505050905090810190601f1680156102a65780820380516001836020036101000a031916815260200191505b509250505060405180910390f35b34156102bf57600080fd5b6102c761049b565b6040518080602001828103825283818151815260200191508051906020019080838360005b838110156103075780820151818401526020810190506102ec565b50505050905090810190601f1680156103345780820380516001836020036101000a031916815260200191505b509250505060405180910390f35b61034a6104de565b005b341561035757600080fd5b61036d60048080359060200190919050506104e0565b604051808215151515815260200191505060405180910390f35b60003073ffffffffffffffffffffffffffffffffffffffff1631905090565b6000809054906101000a900473ffffffffffffffffffffffffffffffffffffffff1681565b60008060009054906101000a900473ffffffffffffffffffffffffffffffffffffffff16905090565b60008060009054906101000a900473ffffffffffffffffffffffffffffffffffffffff1673ffffffffffffffffffffffffffffffffffffffff1631905090565b61043c6106ce565b610494610448836105d7565b6104866040805190810160405280600781526020017f48656c6c6f2c20000000000000000000000000000000000000000000000000008152506105d7565b61060590919063ffffffff16565b9050919050565b6104a36106ce565b6040805190810160405280601381526020017f48656c6c6f20517a6f6e65426c6f636b50657400000000000000000000000000815250905090565b565b60008060009054906101000a900473ffffffffffffffffffffffffffffffffffffffff1673ffffffffffffffffffffffffffffffffffffffff166108fc839081150290604051600060405180830381858888f1935050505090507f0ae0e6674424a56b8d8e36a9aff65c363a448a974a6e5166bb9a6a36e7a424b86000809054906101000a900473ffffffffffffffffffffffffffffffffffffffff168383604051808473ffffffffffffffffffffffffffffffffffffffff1673ffffffffffffffffffffffffffffffffffffffff16815260200183815260200182151515158152602001935050505060405180910390a1919050565b6105df6106e2565b600060208301905060408051908101604052808451815260200182815250915050919050565b61060d6106ce565b6106156106ce565b6000836000015185600001510160405180591061062f5750595b9080825280601f01601f1916602001820160405250915060208201905061065f8186602001518760000151610683565b6106788560000151820185602001518660000151610683565b819250505092915050565b60005b6020821015156106ab5782518452602084019350602083019250602082039150610686565b6001826020036101000a0390508019835116818551168181178652505050505050565b602060405190810160405280600081525090565b6040805190810160405280600081526020016000815250905600a165627a7a7230582011b055b4b6e6825318b640c0c7d2f0e715c91b9b1b954f944aee3d6e80ea94330029",
  "source": "pragma solidity ^0.4.17;\nimport \"./strings.sol\";\n\ncontract HelloWorld {\n\taddress public owner;\n\tusing strings for *;\n\t// 构造函数\n\tfunction HelloWorld() payable {\n\t\towner = msg.sender;\n\t}\n\n\t// 匿名函数，当外部调用找不到时调用该函数\n\tevent fallbackTrigged(bytes data);\n\tfunction() payable {\n\t\tfallbackTrigged(msg.data);\n\t}\n\n\t// 发送以太币到该合约，单位wei\n\tevent sendEvent(address to, uint value, bool result);\n    function sendEther(uint256 number) public returns (bool result) {\n    \t// 向owner发送ether\n        result = owner.send(number);\n        sendEvent(owner, number, result);\n    }\n\n    function deposit() payable {\n\n    }\n\n    // 获取合约余额，单位wei\n    function getBalance() public returns (uint balance) {\n    \tbalance = this.balance;\n    }\n\n\tfunction greet() public pure returns (string) {\n\t\treturn \"Hello QzoneBlockPet\";\n\t}\n\n\tfunction sayHello(string name) public returns (string) {\n\t\treturn \"Hello, \".toSlice().concat(name.toSlice());\n\t}\n\n\tfunction ownerBalance() public returns (uint) {\n\t\treturn owner.balance;\n\t}\n\n\tfunction ownerAddress() public returns (address) {\n\t\treturn owner;\n\t}\n\n}",
  "sourcePath": "/Users/forrestlin/DApps/QzoneBlockPet/contracts/HelloWorld.sol",
  "compiler": {
    "name": "solc",
    "version": "0.4.18+commit.9cf6e910.Emscripten.clang"
  },
  "schemaVersion": "1.0.1",
  "updatedAt": "2018-01-08T14:39:05.212Z"
}