{
  "contractName": "HelloWorld",
  "abi": [
    {
      "constant": false,
      "inputs": [],
      "name": "getBalance",
      "outputs": [
        {
          "name": "balance",
          "type": "uint256"
        }
      ],
      "payable": false,
      "stateMutability": "nonpayable",
      "type": "function"
    },
    {
      "constant": false,
      "inputs": [
        {
          "name": "name",
          "type": "string"
        }
      ],
      "name": "sayHello",
      "outputs": [
        {
          "name": "",
          "type": "string"
        }
      ],
      "payable": false,
      "stateMutability": "nonpayable",
      "type": "function"
    },
    {
      "constant": true,
      "inputs": [],
      "name": "greet",
      "outputs": [
        {
          "name": "",
          "type": "string"
        }
      ],
      "payable": false,
      "stateMutability": "pure",
      "type": "function"
    },
    {
      "constant": false,
      "inputs": [],
      "name": "deposit",
      "outputs": [],
      "payable": true,
      "stateMutability": "payable",
      "type": "function"
    },
    {
      "constant": false,
      "inputs": [
        {
          "name": "number",
          "type": "uint256"
        }
      ],
      "name": "sendEther",
      "outputs": [
        {
          "name": "result",
          "type": "bool"
        }
      ],
      "payable": false,
      "stateMutability": "nonpayable",
      "type": "function"
    },
    {
      "inputs": [],
      "payable": true,
      "stateMutability": "payable",
      "type": "constructor"
    },
    {
      "payable": true,
      "stateMutability": "payable",
      "type": "fallback"
    },
    {
      "anonymous": false,
      "inputs": [
        {
          "indexed": false,
          "name": "data",
          "type": "bytes"
        }
      ],
      "name": "fallbackTrigged",
      "type": "event"
    },
    {
      "anonymous": false,
      "inputs": [
        {
          "indexed": false,
          "name": "to",
          "type": "address"
        },
        {
          "indexed": false,
          "name": "value",
          "type": "uint256"
        },
        {
          "indexed": false,
          "name": "result",
          "type": "bool"
        }
      ],
      "name": "sendEvent",
      "type": "event"
    }
  ],
  "bytecode": "0x6060604052336000806101000a81548173ffffffffffffffffffffffffffffffffffffffff021916908373ffffffffffffffffffffffffffffffffffffffff1602179055506105a6806100536000396000f30060606040526004361061006d576000357c0100000000000000000000000000000000000000000000000000000000900463ffffffff16806312065fe0146100c1578063c3a9b1c5146100ea578063cfae3217146101c0578063d0e30db01461024e578063f88d331a14610258575b7ffcce2a7c4e078f3996a0f603e266b3637cc3c0760b935787b4e8153eac3a2407600036604051808060200182810382528484828181526020019250808284378201915050935050505060405180910390a1005b34156100cc57600080fd5b6100d4610293565b6040518082815260200191505060405180910390f35b34156100f557600080fd5b610145600480803590602001908201803590602001908080601f016020809104026020016040519081016040528093929190818152602001838380828437820191505050505050919050506102b2565b6040518080602001828103825283818151815260200191508051906020019080838360005b8381101561018557808201518184015260208101905061016a565b50505050905090810190601f1680156101b25780820380516001836020036101000a031916815260200191505b509250505060405180910390f35b34156101cb57600080fd5b6101d3610319565b6040518080602001828103825283818151815260200191508051906020019080838360005b838110156102135780820151818401526020810190506101f8565b50505050905090810190601f1680156102405780820380516001836020036101000a031916815260200191505b509250505060405180910390f35b61025661035c565b005b341561026357600080fd5b610279600480803590602001909190505061035e565b604051808215151515815260200191505060405180910390f35b60003073ffffffffffffffffffffffffffffffffffffffff1631905090565b6102ba61054c565b6103126102c683610455565b6103046040805190810160405280600581526020017f48656c6c6f000000000000000000000000000000000000000000000000000000815250610455565b61048390919063ffffffff16565b9050919050565b61032161054c565b6040805190810160405280601381526020017f48656c6c6f20517a6f6e65426c6f636b50657400000000000000000000000000815250905090565b565b60008060009054906101000a900473ffffffffffffffffffffffffffffffffffffffff1673ffffffffffffffffffffffffffffffffffffffff166108fc839081150290604051600060405180830381858888f1935050505090507f0ae0e6674424a56b8d8e36a9aff65c363a448a974a6e5166bb9a6a36e7a424b86000809054906101000a900473ffffffffffffffffffffffffffffffffffffffff168383604051808473ffffffffffffffffffffffffffffffffffffffff1673ffffffffffffffffffffffffffffffffffffffff16815260200183815260200182151515158152602001935050505060405180910390a1919050565b61045d610560565b600060208301905060408051908101604052808451815260200182815250915050919050565b61048b61054c565b61049361054c565b600083600001518560000151016040518059106104ad5750595b9080825280601f01601f191660200182016040525091506020820190506104dd8186602001518760000151610501565b6104f68560000151820185602001518660000151610501565b819250505092915050565b60005b6020821015156105295782518452602084019350602083019250602082039150610504565b6001826020036101000a0390508019835116818551168181178652505050505050565b602060405190810160405280600081525090565b6040805190810160405280600081526020016000815250905600a165627a7a72305820102a59492c8fbe6afbe795208ca34fc9c2960b3e46784546a6f79fb8eab4669b0029",
  "source": "pragma solidity ^0.4.17;\nimport \"./strings.sol\";\n\ncontract HelloWorld {\n\taddress owner;\n\tusing strings for *;\n\t// 构造函数\n\tfunction HelloWorld() payable {\n\t\towner = msg.sender;\n\t}\n\n\t// 匿名函数，当外部调用找不到时调用该函数\n\tevent fallbackTrigged(bytes data);\n\tfunction() payable {\n\t\tfallbackTrigged(msg.data);\n\t}\n\n\t// 发送以太币到该合约，单位wei\n\tevent sendEvent(address to, uint value, bool result);\n    function sendEther(uint256 number) public returns (bool result) {\n    \t// 向owner发送ether\n        result = owner.send(number);\n        sendEvent(owner, number, result);\n    }\n\n    function deposit() payable {\n\n    }\n\n    // 获取合约余额，单位wei\n    function getBalance() public returns (uint balance) {\n    \tbalance = this.balance;\n    }\n\n\tfunction greet() public pure returns (string) {\n\t\treturn \"Hello QzoneBlockPet\";\n\t}\n\n\tfunction sayHello(string name) public returns (string) {\n\t\treturn \"Hello\".toSlice().concat(name.toSlice());\n\t}\n\n}",
  "sourcePath": "/Users/forrestlin/DApps/QzoneBlockPet/contracts/HelloWorld.sol",
  "compiler": {
    "name": "solc",
    "version": "0.4.18+commit.9cf6e910.Emscripten.clang"
  },
  "schemaVersion": "1.0.1",
  "updatedAt": "2018-01-07T13:01:48.487Z"
}