{
  "contractName": "PetCard",
  "abi": [
    {
      "constant": false,
      "inputs": [
        {
          "name": "cardId",
          "type": "uint256"
        }
      ],
      "name": "cancelSellCard",
      "outputs": [],
      "payable": true,
      "stateMutability": "payable",
      "type": "function"
    },
    {
      "constant": false,
      "inputs": [
        {
          "name": "cardId",
          "type": "uint256"
        },
        {
          "name": "otherUser",
          "type": "address"
        }
      ],
      "name": "exchangeCard",
      "outputs": [],
      "payable": false,
      "stateMutability": "nonpayable",
      "type": "function"
    },
    {
      "constant": false,
      "inputs": [
        {
          "name": "code",
          "type": "bytes32"
        },
        {
          "name": "value",
          "type": "uint256"
        }
      ],
      "name": "createNewCardForUser",
      "outputs": [],
      "payable": false,
      "stateMutability": "nonpayable",
      "type": "function"
    },
    {
      "constant": true,
      "inputs": [],
      "name": "getAllCardsForUser",
      "outputs": [
        {
          "name": "cardIds",
          "type": "uint256[]"
        },
        {
          "name": "codes",
          "type": "bytes32[]"
        },
        {
          "name": "values",
          "type": "uint256[]"
        },
        {
          "name": "len",
          "type": "uint256"
        }
      ],
      "payable": false,
      "stateMutability": "view",
      "type": "function"
    },
    {
      "constant": false,
      "inputs": [
        {
          "name": "cardId",
          "type": "uint256"
        }
      ],
      "name": "sellCard",
      "outputs": [],
      "payable": true,
      "stateMutability": "payable",
      "type": "function"
    },
    {
      "constant": false,
      "inputs": [
        {
          "name": "cardId",
          "type": "uint256"
        }
      ],
      "name": "buyCard",
      "outputs": [],
      "payable": true,
      "stateMutability": "payable",
      "type": "function"
    },
    {
      "inputs": [],
      "payable": true,
      "stateMutability": "payable",
      "type": "constructor"
    },
    {
      "payable": true,
      "stateMutability": "payable",
      "type": "fallback"
    },
    {
      "anonymous": false,
      "inputs": [
        {
          "indexed": false,
          "name": "data",
          "type": "bytes"
        }
      ],
      "name": "FallbackTrigged",
      "type": "event"
    },
    {
      "anonymous": false,
      "inputs": [
        {
          "indexed": false,
          "name": "cardId",
          "type": "uint256"
        },
        {
          "indexed": false,
          "name": "isSuccess",
          "type": "bool"
        },
        {
          "indexed": false,
          "name": "errorCode",
          "type": "uint8"
        }
      ],
      "name": "BuyCardEvent",
      "type": "event"
    },
    {
      "anonymous": false,
      "inputs": [
        {
          "indexed": false,
          "name": "cardId",
          "type": "uint256"
        },
        {
          "indexed": false,
          "name": "isSuccess",
          "type": "bool"
        },
        {
          "indexed": false,
          "name": "errorCode",
          "type": "uint8"
        }
      ],
      "name": "SellCardEvent",
      "type": "event"
    },
    {
      "anonymous": false,
      "inputs": [
        {
          "indexed": false,
          "name": "cardId",
          "type": "uint256"
        },
        {
          "indexed": false,
          "name": "isSuccess",
          "type": "bool"
        },
        {
          "indexed": false,
          "name": "errorCode",
          "type": "uint8"
        }
      ],
      "name": "CancelSellCardEvent",
      "type": "event"
    },
    {
      "anonymous": false,
      "inputs": [
        {
          "indexed": false,
          "name": "cardId",
          "type": "uint256"
        },
        {
          "indexed": false,
          "name": "newOwner",
          "type": "address"
        },
        {
          "indexed": false,
          "name": "isSucess",
          "type": "bool"
        },
        {
          "indexed": false,
          "name": "errorCode",
          "type": "uint8"
        }
      ],
      "name": "ExchangeCardEvent",
      "type": "event"
    },
    {
      "anonymous": false,
      "inputs": [
        {
          "indexed": false,
          "name": "cardId",
          "type": "uint256"
        },
        {
          "indexed": false,
          "name": "code",
          "type": "bytes32"
        },
        {
          "indexed": false,
          "name": "owner",
          "type": "address"
        },
        {
          "indexed": false,
          "name": "value",
          "type": "uint256"
        }
      ],
      "name": "CreateNewCardEvent",
      "type": "event"
    }
  ],
  "bytecode": "0x606060405233600160006101000a81548173ffffffffffffffffffffffffffffffffffffffff021916908373ffffffffffffffffffffffffffffffffffffffff160217905550611456806100546000396000f300606060405260043610610078576000357c0100000000000000000000000000000000000000000000000000000000900463ffffffff1680633c0af01d146100cc5780634244b29d146100e457806353edd9801461012657806376667cb314610156578063871238e414610257578063c70f5eaa1461026f575b7fe1d5bef947f36a9d6903a61d643fe4053e7897f1b3136059d255e83c547c0be2600036604051808060200182810382528484828181526020019250808284378201915050935050505060405180910390a1005b6100e26004808035906020019091905050610287565b005b34156100ef57600080fd5b610124600480803590602001909190803573ffffffffffffffffffffffffffffffffffffffff16906020019091905050610505565b005b341561013157600080fd5b6101546004808035600019169060200190919080359060200190919050506108c5565b005b341561016157600080fd5b610169610a7a565b60405180806020018060200180602001858152602001848103845288818151815260200191508051906020019060200280838360005b838110156101ba57808201518184015260208101905061019f565b50505050905001848103835287818151815260200191508051906020019060200280838360005b838110156101fc5780820151818401526020810190506101e1565b50505050905001848103825286818151815260200191508051906020019060200280838360005b8381101561023e578082015181840152602081019050610223565b5050505090500197505050505050505060405180910390f35b61026d6004808035906020019091905050610c6f565b005b6102856004808035906020019091905050610f77565b005b600080805490508210158061029c5750600082105b156102fd577fd03e72c47d0f6e9ea2f010f08a9aed6c3d39551e7fd3690d8ac1f24489cf23ec826000600160405180848152602001831515151581526020018260058111156102e757fe5b60ff168152602001935050505060405180910390a15b60008281548110151561030c57fe5b906000526020600020906005020190503373ffffffffffffffffffffffffffffffffffffffff168160020160009054906101000a900473ffffffffffffffffffffffffffffffffffffffff1673ffffffffffffffffffffffffffffffffffffffff161415156103d1577fd03e72c47d0f6e9ea2f010f08a9aed6c3d39551e7fd3690d8ac1f24489cf23ec826000600260405180848152602001831515151581526020018260058111156103bb57fe5b60ff168152602001935050505060405180910390a15b8060020160149054906101000a900460ff161515610445577fd03e72c47d0f6e9ea2f010f08a9aed6c3d39551e7fd3690d8ac1f24489cf23ec8260006004604051808481526020018315151515815260200182600581111561042f57fe5b60ff168152602001935050505060405180910390a15b3373ffffffffffffffffffffffffffffffffffffffff166108fc82600301549081150290604051600060405180830381858888f19350505050151561048957600080fd5b60008160020160146101000a81548160ff0219169083151502179055507fd03e72c47d0f6e9ea2f010f08a9aed6c3d39551e7fd3690d8ac1f24489cf23ec826001600060405180848152602001831515151581526020018260058111156104ec57fe5b60ff168152602001935050505060405180910390a15050565b600080805490508310158061051a5750600083105b156105d3577f50d8d633276cc18bbe2c97be7a16c463348646bae606770cab9e27f678010d83838260020160009054906101000a900473ffffffffffffffffffffffffffffffffffffffff1660006001604051808581526020018473ffffffffffffffffffffffffffffffffffffffff1673ffffffffffffffffffffffffffffffffffffffff168152602001831515151581526020018260058111156105bc57fe5b60ff16815260200194505050505060405180910390a15b6000838154811015156105e257fe5b906000526020600020906005020190503373ffffffffffffffffffffffffffffffffffffffff168160020160009054906101000a900473ffffffffffffffffffffffffffffffffffffffff1673ffffffffffffffffffffffffffffffffffffffff161415156106ff577f50d8d633276cc18bbe2c97be7a16c463348646bae606770cab9e27f678010d83838260020160009054906101000a900473ffffffffffffffffffffffffffffffffffffffff1660006002604051808581526020018473ffffffffffffffffffffffffffffffffffffffff1673ffffffffffffffffffffffffffffffffffffffff168152602001831515151581526020018260058111156106e857fe5b60ff16815260200194505050505060405180910390a15b8060020160149054906101000a900460ff16156107ca577f50d8d633276cc18bbe2c97be7a16c463348646bae606770cab9e27f678010d83838260020160009054906101000a900473ffffffffffffffffffffffffffffffffffffffff1660006003604051808581526020018473ffffffffffffffffffffffffffffffffffffffff1673ffffffffffffffffffffffffffffffffffffffff168152602001831515151581526020018260058111156107b357fe5b60ff16815260200194505050505060405180910390a15b818160020160006101000a81548173ffffffffffffffffffffffffffffffffffffffff021916908373ffffffffffffffffffffffffffffffffffffffff1602179055507f50d8d633276cc18bbe2c97be7a16c463348646bae606770cab9e27f678010d83838260020160009054906101000a900473ffffffffffffffffffffffffffffffffffffffff1660016000604051808581526020018473ffffffffffffffffffffffffffffffffffffffff1673ffffffffffffffffffffffffffffffffffffffff168152602001831515151581526020018260058111156108aa57fe5b60ff16815260200194505050505060405180910390a1505050565b6108cd611304565b60c060405190810160405280846000191681526020018381526020013373ffffffffffffffffffffffffffffffffffffffff168152602001600015158152602001600081526020016000805490508152509050600080548060010182816109349190611356565b91600052602060002090600502016000839091909150600082015181600001906000191690556020820151816001015560408201518160020160006101000a81548173ffffffffffffffffffffffffffffffffffffffff021916908373ffffffffffffffffffffffffffffffffffffffff16021790555060608201518160020160146101000a81548160ff0219169083151502179055506080820151816003015560a082015181600401555050507f173bb295395179be14247a048cce9b376914d26b6de0e2353b9d35b43783ddc78160a001518260000151836040015184602001516040518085815260200184600019166000191681526020018373ffffffffffffffffffffffffffffffffffffffff1673ffffffffffffffffffffffffffffffffffffffff16815260200182815260200194505050505060405180910390a1505050565b610a82611388565b610a8a61139c565b610a92611388565b600080600080549050604051805910610aa85750595b90808252806020026020018201604052509450600080549050604051805910610ace5750595b90808252806020026020018201604052509350600080549050604051805910610af45750595b9080825280602002602001820160405250925060009150600090505b600080549050811015610c68573373ffffffffffffffffffffffffffffffffffffffff16600082815481101515610b4357fe5b906000526020600020906005020160020160009054906101000a900473ffffffffffffffffffffffffffffffffffffffff1673ffffffffffffffffffffffffffffffffffffffff161415610c5b57600081815481101515610ba057fe5b9060005260206000209060050201600401548583815181101515610bc057fe5b9060200190602002018181525050600081815481101515610bdd57fe5b9060005260206000209060050201600001548483815181101515610bfd57fe5b906020019060200201906000191690816000191681525050600081815481101515610c2457fe5b9060005260206000209060050201600101548383815181101515610c4457fe5b906020019060200201818152505081806001019250505b8080600101915050610b10565b5090919293565b60008033915060008054905083101580610c895750600083105b15610d2a578173ffffffffffffffffffffffffffffffffffffffff166108fc349081150290604051600060405180830381858888f193505050501515610cce57600080fd5b7fba2086e2f26be2b59f7c73dbbfb530926172501c902145f11fecc8e27e64b59783600060016040518084815260200183151515158152602001826005811115610d1457fe5b60ff168152602001935050505060405180910390a15b600083815481101515610d3957fe5b906000526020600020906005020190508060020160009054906101000a900473ffffffffffffffffffffffffffffffffffffffff1673ffffffffffffffffffffffffffffffffffffffff168273ffffffffffffffffffffffffffffffffffffffff16141515610e3e578173ffffffffffffffffffffffffffffffffffffffff166108fc349081150290604051600060405180830381858888f193505050501515610de257600080fd5b7fba2086e2f26be2b59f7c73dbbfb530926172501c902145f11fecc8e27e64b59783600060026040518084815260200183151515158152602001826005811115610e2857fe5b60ff168152602001935050505060405180910390a15b8060020160149054906101000a900460ff1615610ef1578173ffffffffffffffffffffffffffffffffffffffff166108fc349081150290604051600060405180830381858888f193505050501515610e9557600080fd5b7fba2086e2f26be2b59f7c73dbbfb530926172501c902145f11fecc8e27e64b59783600060036040518084815260200183151515158152602001826005811115610edb57fe5b60ff168152602001935050505060405180910390a15b60018160020160146101000a81548160ff0219169083151502179055503481600301819055507fba2086e2f26be2b59f7c73dbbfb530926172501c902145f11fecc8e27e64b59783600160006040518084815260200183151515158152602001826005811115610f5d57fe5b60ff168152602001935050505060405180910390a1505050565b60008033915060008054905083101580610f915750600083105b15611032578173ffffffffffffffffffffffffffffffffffffffff166108fc349081150290604051600060405180830381858888f193505050501515610fd657600080fd5b7ff718d7ccbce22af7188d0743a792864a132ed3df30959bad4fc92d12e5a83dfa8360006001604051808481526020018315151515815260200182600581111561101c57fe5b60ff168152602001935050505060405180910390a15b60008381548110151561104157fe5b9060005260206000209060050201905080600301543410156110f9578173ffffffffffffffffffffffffffffffffffffffff166108fc349081150290604051600060405180830381858888f19350505050151561109d57600080fd5b7ff718d7ccbce22af7188d0743a792864a132ed3df30959bad4fc92d12e5a83dfa836000600560405180848152602001831515151581526020018260058111156110e357fe5b60ff168152602001935050505060405180910390a15b8060020160149054906101000a900460ff1615156111ad578173ffffffffffffffffffffffffffffffffffffffff166108fc349081150290604051600060405180830381858888f19350505050151561115157600080fd5b7ff718d7ccbce22af7188d0743a792864a132ed3df30959bad4fc92d12e5a83dfa8360006004604051808481526020018315151515815260200182600581111561119757fe5b60ff168152602001935050505060405180910390a15b80600301543073ffffffffffffffffffffffffffffffffffffffff163110151561123a578060020160009054906101000a900473ffffffffffffffffffffffffffffffffffffffff1673ffffffffffffffffffffffffffffffffffffffff166108fc82600301549081150290604051600060405180830381858888f19350505050151561123957600080fd5b5b818160020160006101000a81548173ffffffffffffffffffffffffffffffffffffffff021916908373ffffffffffffffffffffffffffffffffffffffff16021790555060008160020160146101000a81548160ff021916908315150217905550600081600301819055507ff718d7ccbce22af7188d0743a792864a132ed3df30959bad4fc92d12e5a83dfa836001600060405180848152602001831515151581526020018260058111156112ea57fe5b60ff168152602001935050505060405180910390a1505050565b60c0604051908101604052806000801916815260200160008152602001600073ffffffffffffffffffffffffffffffffffffffff16815260200160001515815260200160008152602001600081525090565b8154818355818115116113835760050281600502836000526020600020918201910161138291906113b0565b5b505050565b602060405190810160405280600081525090565b602060405190810160405280600081525090565b61142791905b808211156114235760008082016000905560018201600090556002820160006101000a81549073ffffffffffffffffffffffffffffffffffffffff02191690556002820160146101000a81549060ff021916905560038201600090556004820160009055506005016113b6565b5090565b905600a165627a7a723058203ace751d36a49a3c6d5997a1d49f17507b307686fef6770ab1ae906bba7c65220029",
  "source": "pragma solidity ^0.4.17;\n\ncontract PetCard {\n    struct Card {\n        bytes32 code; //卡片代码，决定卡片的功能\n        uint256 value;\n        address owner;\n        bool isSelling;\n        uint sellingPrice;\n        uint cardId;\n    }\n    enum ErrorCode {ERROR_NO_ERROR, ERROR_INDEX_OUT_OF_RANGE, ERROR_WRONG_OWNER, ERROR_CARD_IS_SELLING, ERROR_CARD_IS_NOT_SELLING, ERROR_PRICE_NOT_ENOUGH}\n    Card[] cards;\n    address CEO;\n    function PetCard() public payable {\n        CEO = msg.sender;\n    }\n\n    // 匿名函数，当外部调用找不到时调用该函数\n\tevent FallbackTrigged(bytes data);\n\tfunction() public payable {\n\t\tFallbackTrigged(msg.data);\n\t}\n\n    event BuyCardEvent(uint cardId, bool isSuccess, ErrorCode errorCode);\n    // 从卡片商城中购买卡片\n    function buyCard(uint cardId) public payable {\n        address buyer = msg.sender;\n        // 判断card下标是否合法，不合法时退款给买家\n        if (cardId >= cards.length || cardId < 0) {\n            buyer.transfer(msg.value);\n            BuyCardEvent(cardId, false, ErrorCode.ERROR_INDEX_OUT_OF_RANGE);\n        }\n        Card storage card = cards[cardId];\n        // 判断消费金额是否小于card价格\n        if (msg.value < card.sellingPrice) {\n            buyer.transfer(msg.value);\n            BuyCardEvent(cardId, false, ErrorCode.ERROR_PRICE_NOT_ENOUGH);\n        } \n        // 判断卡片是否正在销售\n        if (!card.isSelling) {\n            buyer.transfer(msg.value);\n            BuyCardEvent(cardId, false, ErrorCode.ERROR_CARD_IS_NOT_SELLING);\n        }\n        // 将卡片卖的钱还给卖家\n        if (this.balance >= card.sellingPrice) {\n            card.owner.transfer(card.sellingPrice);\n        }\n        card.owner = buyer;\n        card.isSelling = false;\n        card.sellingPrice = 0;\n        BuyCardEvent(cardId, true, ErrorCode.ERROR_NO_ERROR);\n    }\n\n    event SellCardEvent(uint cardId, bool isSuccess, ErrorCode errorCode);\n    // 用户卖自己的卡片给合约\n    function sellCard(uint cardId) public payable {\n        address seller = msg.sender;\n        // 判断卡片下标是否合法\n        if (cardId >= cards.length || cardId < 0) {\n            seller.transfer(msg.value);\n            SellCardEvent(cardId, false, ErrorCode.ERROR_INDEX_OUT_OF_RANGE);\n        }\n        Card storage card = cards[cardId];\n        // 判断卖家是否为卡片拥有者\n        if (seller != card.owner) {\n            seller.transfer(msg.value);\n            SellCardEvent(cardId, false, ErrorCode.ERROR_WRONG_OWNER);\n        }\n        if (card.isSelling) {\n            seller.transfer(msg.value);\n            SellCardEvent(cardId, false, ErrorCode.ERROR_CARD_IS_SELLING);\n        }\n        card.isSelling = true;\n        card.sellingPrice = msg.value;\n        SellCardEvent(cardId, true, ErrorCode.ERROR_NO_ERROR);\n    }\n\n    event CancelSellCardEvent(uint cardId, bool isSuccess, ErrorCode errorCode);\n    // 用户取消出售卡片\n    function cancelSellCard(uint cardId) public payable {\n        // 判断卡片下标是否合法\n        if (cardId >= cards.length || cardId < 0) {\n            CancelSellCardEvent(cardId, false, ErrorCode.ERROR_INDEX_OUT_OF_RANGE);\n        }\n        Card storage card = cards[cardId];\n        if (card.owner != msg.sender) {\n            CancelSellCardEvent(cardId, false, ErrorCode.ERROR_WRONG_OWNER);\n        }\n        if (!card.isSelling) {\n            CancelSellCardEvent(cardId, false, ErrorCode.ERROR_CARD_IS_NOT_SELLING);\n        }\n        msg.sender.transfer(card.sellingPrice);\n        card.isSelling = false;\n        CancelSellCardEvent(cardId, true, ErrorCode.ERROR_NO_ERROR);\n    }\n\n    event ExchangeCardEvent(uint cardId, address newOwner, bool isSucess, ErrorCode errorCode);\n    // 用户交换卡片\n    function exchangeCard(uint cardId, address otherUser) public {\n        // 判断卡片下标是否合法\n        if (cardId >= cards.length || cardId < 0) {\n            ExchangeCardEvent(cardId, card.owner, false, ErrorCode.ERROR_INDEX_OUT_OF_RANGE);      \n        }\n        Card storage card = cards[cardId];\n        // 判断卡片拥有者\n        if (card.owner != msg.sender) {\n            ExchangeCardEvent(cardId, card.owner, false, ErrorCode.ERROR_WRONG_OWNER);\n        }\n        // 判断卡片是否正在出售\n        if (card.isSelling) {\n            ExchangeCardEvent(cardId, card.owner, false, ErrorCode.ERROR_CARD_IS_SELLING);\n        }\n        card.owner = otherUser;\n        ExchangeCardEvent(cardId, card.owner, true, ErrorCode.ERROR_NO_ERROR);\n    }\n\n    // 获取用户所有卡片\n    function getAllCardsForUser() public constant returns (uint[] cardIds, bytes32[] codes, uint[] values, uint len) {\n        cardIds = new uint[](cards.length);\n        codes = new bytes32[](cards.length);\n        values = new uint[](cards.length);\n        // codes = new string[](cards.length);\n        len = 0;\n        for (uint i = 0; i < cards.length; i++) {\n            if (cards[i].owner == msg.sender) {\n                cardIds[len] = cards[i].cardId;\n                codes[len] = cards[i].code;\n                values[len] = cards[i].value;\n                // codes[len] = cards[i].code;\n                len++;\n            }\n        }\n    }\n\n    event CreateNewCardEvent(uint cardId, bytes32 code, address owner, uint value);\n    // 给用户掉落新卡片\n    function createNewCardForUser(bytes32 code, uint value) public {\n        Card memory card = Card({code: code, value: value, owner: msg.sender, isSelling: false, cardId: cards.length, sellingPrice: 0});\n        cards.push(card);\n        CreateNewCardEvent(card.cardId, card.code, card.owner, card.value);\n    }\n\n}",
  "sourcePath": "/Users/forrestlin/DApps/QzoneBlockPet/contracts/PetCard.sol",
  "compiler": {
    "name": "solc",
    "version": "0.4.18+commit.9cf6e910.Emscripten.clang"
  },
  "schemaVersion": "1.0.1",
  "updatedAt": "2018-01-14T12:46:33.870Z"
}