{
  "contractName": "PetCard",
  "abi": [
    {
      "constant": false,
      "inputs": [
        {
          "name": "code",
          "type": "string"
        },
        {
          "name": "value",
          "type": "uint256"
        }
      ],
      "name": "createNewCardForUser",
      "outputs": [
        {
          "components": [
            {
              "name": "code",
              "type": "string"
            },
            {
              "name": "value",
              "type": "uint256"
            },
            {
              "name": "owner",
              "type": "address"
            },
            {
              "name": "isSelling",
              "type": "bool"
            },
            {
              "name": "cardId",
              "type": "uint256"
            }
          ],
          "name": "card",
          "type": "tuple"
        }
      ],
      "payable": false,
      "stateMutability": "nonpayable",
      "type": "function"
    },
    {
      "constant": false,
      "inputs": [
        {
          "name": "cardId",
          "type": "uint256"
        }
      ],
      "name": "cancelSellCard",
      "outputs": [
        {
          "name": "",
          "type": "bool"
        }
      ],
      "payable": true,
      "stateMutability": "payable",
      "type": "function"
    },
    {
      "constant": false,
      "inputs": [
        {
          "name": "cardId",
          "type": "uint256"
        },
        {
          "name": "otherUser",
          "type": "address"
        }
      ],
      "name": "exchangeCard",
      "outputs": [
        {
          "name": "",
          "type": "bool"
        }
      ],
      "payable": false,
      "stateMutability": "nonpayable",
      "type": "function"
    },
    {
      "constant": false,
      "inputs": [],
      "name": "getAllCardsForUser",
      "outputs": [
        {
          "components": [
            {
              "name": "code",
              "type": "string"
            },
            {
              "name": "value",
              "type": "uint256"
            },
            {
              "name": "owner",
              "type": "address"
            },
            {
              "name": "isSelling",
              "type": "bool"
            },
            {
              "name": "cardId",
              "type": "uint256"
            }
          ],
          "name": "",
          "type": "tuple[]"
        }
      ],
      "payable": false,
      "stateMutability": "nonpayable",
      "type": "function"
    },
    {
      "constant": false,
      "inputs": [
        {
          "name": "cardId",
          "type": "uint256"
        }
      ],
      "name": "sellCard",
      "outputs": [
        {
          "name": "",
          "type": "bool"
        }
      ],
      "payable": true,
      "stateMutability": "payable",
      "type": "function"
    },
    {
      "constant": false,
      "inputs": [
        {
          "name": "cardId",
          "type": "uint256"
        }
      ],
      "name": "buyCard",
      "outputs": [
        {
          "name": "",
          "type": "bool"
        }
      ],
      "payable": true,
      "stateMutability": "payable",
      "type": "function"
    },
    {
      "inputs": [],
      "payable": true,
      "stateMutability": "payable",
      "type": "constructor"
    },
    {
      "payable": true,
      "stateMutability": "payable",
      "type": "fallback"
    },
    {
      "anonymous": false,
      "inputs": [
        {
          "indexed": false,
          "name": "data",
          "type": "bytes"
        }
      ],
      "name": "FallbackTrigged",
      "type": "event"
    }
  ],
  "bytecode": "0x606060405233600160006101000a81548173ffffffffffffffffffffffffffffffffffffffff021916908373ffffffffffffffffffffffffffffffffffffffff160217905550610fd5806100546000396000f300606060405260043610610078576000357c0100000000000000000000000000000000000000000000000000000000900463ffffffff168063087a9fda146100cc5780633c0af01d146101465780634244b29d1461017657806376667cb3146101d0578063871238e414610235578063c70f5eaa14610265575b7fe1d5bef947f36a9d6903a61d643fe4053e7897f1b3136059d255e83c547c0be2600036604051808060200182810382528484828181526020019250808284378201915050935050505060405180910390a1005b34156100d757600080fd5b610130600480803590602001908201803590602001908080601f01602080910402602001604051908101604052809392919081815260200183838082843782019150505050505091908035906020019091905050610295565b6040518082815260200191505060405180910390f35b61015c60048080359060200190919050506103b0565b604051808215151515815260200191505060405180910390f35b341561018157600080fd5b6101b6600480803590602001909190803573ffffffffffffffffffffffffffffffffffffffff169060200190919050506104e3565b604051808215151515815260200191505060405180910390f35b34156101db57600080fd5b6101e36105f8565b60405180806020018281038252838181518152602001915080516000925b818410156102245782849060200190602002015181526020019260010192610201565b925050509250505060405180910390f35b61024b600480803590602001909190505061091e565b604051808215151515815260200191505060405180910390f35b61027b6004808035906020019091905050610adb565b604051808215151515815260200191505060405180910390f35b61029d610d13565b60a0604051908101604052808481526020018381526020013373ffffffffffffffffffffffffffffffffffffffff1681526020016000151581526020016000805490508152509050600080548060010182816102f99190610d61565b91600052602060002090600402016000839091909150600082015181600001908051906020019061032b929190610d93565b506020820151816001015560408201518160020160006101000a81548173ffffffffffffffffffffffffffffffffffffffff021916908373ffffffffffffffffffffffffffffffffffffffff16021790555060608201518160020160146101000a81548160ff0219169083151502179055506080820151816003015550505092915050565b600080600080549050831015806103c75750600083105b156103d557600091506104dd565b6000838154811015156103e457fe5b906000526020600020906004020190503373ffffffffffffffffffffffffffffffffffffffff168160020160009054906101000a900473ffffffffffffffffffffffffffffffffffffffff1673ffffffffffffffffffffffffffffffffffffffff1614151561045657600091506104dd565b8060020160149054906101000a900460ff16151561047757600091506104dd565b3373ffffffffffffffffffffffffffffffffffffffff166108fc82600101549081150290604051600060405180830381858888f1935050505015156104bb57600080fd5b60008160020160146101000a81548160ff021916908315150217905550600191505b50919050565b600080600080549050841015806104fa5750600084105b1561050857600091506105f1565b60008481548110151561051757fe5b906000526020600020906004020190503373ffffffffffffffffffffffffffffffffffffffff168160020160009054906101000a900473ffffffffffffffffffffffffffffffffffffffff1673ffffffffffffffffffffffffffffffffffffffff1614151561058957600091506105f1565b8060020160149054906101000a900460ff16156105a957600091506105f1565b828160020160006101000a81548173ffffffffffffffffffffffffffffffffffffffff021916908373ffffffffffffffffffffffffffffffffffffffff160217905550600191505b5092915050565b610600610e13565b60008060008091505b6000805490508210156107975760008281548110151561062557fe5b906000526020600020906004020190503373ffffffffffffffffffffffffffffffffffffffff168160020160009054906101000a900473ffffffffffffffffffffffffffffffffffffffff1673ffffffffffffffffffffffffffffffffffffffff16141561078a578280548060010182816106a09190610d61565b91600052602060002090600402016000839091909150600082018160000190805460018160011615610100020316600290046106dd929190610e27565b50600182015481600101556002820160009054906101000a900473ffffffffffffffffffffffffffffffffffffffff168160020160006101000a81548173ffffffffffffffffffffffffffffffffffffffff021916908373ffffffffffffffffffffffffffffffffffffffff1602179055506002820160149054906101000a900460ff168160020160146101000a81548160ff021916908315150217905550600382015481600301555050505b8180600101925050610609565b82805480602002602001604051908101604052809291908181526020016000905b82821015610912578382906000526020600020906004020160a06040519081016040529081600082018054600181600116156101000203166002900480601f0160208091040260200160405190810160405280929190818152602001828054600181600116156101000203166002900480156108755780601f1061084a57610100808354040283529160200191610875565b820191906000526020600020905b81548152906001019060200180831161085857829003601f168201915b50505050508152602001600182015481526020016002820160009054906101000a900473ffffffffffffffffffffffffffffffffffffffff1673ffffffffffffffffffffffffffffffffffffffff1673ffffffffffffffffffffffffffffffffffffffff1681526020016002820160149054906101000a900460ff16151515158152602001600382015481525050815260200190600101906107b8565b50505050935050505090565b60008060003391506000805490508410158061093a5750600084105b15610988578173ffffffffffffffffffffffffffffffffffffffff166108fc349081150290604051600060405180830381858888f19350505050151561097f57600080fd5b60009250610ad4565b60008481548110151561099757fe5b906000526020600020906004020190508060020160009054906101000a900473ffffffffffffffffffffffffffffffffffffffff1673ffffffffffffffffffffffffffffffffffffffff168273ffffffffffffffffffffffffffffffffffffffff16141515610a49578173ffffffffffffffffffffffffffffffffffffffff166108fc349081150290604051600060405180830381858888f193505050501515610a4057600080fd5b60009250610ad4565b8060020160149054906101000a900460ff1615610aa9578173ffffffffffffffffffffffffffffffffffffffff166108fc349081150290604051600060405180830381858888f193505050501515610aa057600080fd5b60009250610ad4565b60018160020160146101000a81548160ff021916908315150217905550348160010181905550600192505b5050919050565b600080600033915060008054905084101580610af75750600084105b15610b45578173ffffffffffffffffffffffffffffffffffffffff166108fc349081150290604051600060405180830381858888f193505050501515610b3c57600080fd5b60009250610d0c565b600084815481101515610b5457fe5b906000526020600020906004020190508060010154341015610bb9578173ffffffffffffffffffffffffffffffffffffffff166108fc349081150290604051600060405180830381858888f193505050501515610bb057600080fd5b60009250610d0c565b8060020160149054906101000a900460ff161515610c1a578173ffffffffffffffffffffffffffffffffffffffff166108fc349081150290604051600060405180830381858888f193505050501515610c1157600080fd5b60009250610d0c565b80600101543073ffffffffffffffffffffffffffffffffffffffff1631101515610ca7578060020160009054906101000a900473ffffffffffffffffffffffffffffffffffffffff1673ffffffffffffffffffffffffffffffffffffffff166108fc82600101549081150290604051600060405180830381858888f193505050501515610ca657600080fd5b5b818160020160006101000a81548173ffffffffffffffffffffffffffffffffffffffff021916908373ffffffffffffffffffffffffffffffffffffffff16021790555060008160020160146101000a81548160ff021916908315150217905550600192505b5050919050565b60a060405190810160405280610d27610eae565b815260200160008152602001600073ffffffffffffffffffffffffffffffffffffffff168152602001600015158152602001600081525090565b815481835581811511610d8e57600402816004028360005260206000209182019101610d8d9190610ec2565b5b505050565b828054600181600116156101000203166002900490600052602060002090601f016020900481019282601f10610dd457805160ff1916838001178555610e02565b82800160010185558215610e02579182015b82811115610e01578251825591602001919060010190610de6565b5b509050610e0f9190610f3c565b5090565b602060405190810160405280600081525090565b828054600181600116156101000203166002900490600052602060002090601f016020900481019282601f10610e605780548555610e9d565b82800160010185558215610e9d57600052602060002091601f016020900482015b82811115610e9c578254825591600101919060010190610e81565b5b509050610eaa9190610f3c565b5090565b602060405190810160405280600081525090565b610f3991905b80821115610f355760008082016000610ee19190610f61565b60018201600090556002820160006101000a81549073ffffffffffffffffffffffffffffffffffffffff02191690556002820160146101000a81549060ff0219169055600382016000905550600401610ec8565b5090565b90565b610f5e91905b80821115610f5a576000816000905550600101610f42565b5090565b90565b50805460018160011615610100020316600290046000825580601f10610f875750610fa6565b601f016020900490600052602060002090810190610fa59190610f3c565b5b505600a165627a7a72305820148059486213cb8b2d3149af58344f9d8f9e1c33be915c9a5aa2225e12ff4e4e0029",
  "source": "pragma solidity ^0.4.17;\n\ncontract PetCard {\n    struct Card {\n        string code; //卡片代码，决定卡片的功能\n        uint256 value;\n        address owner;\n        bool isSelling;\n        uint cardId;\n    }\n    Card[] cards;\n    address CEO;\n    function PetCard() public payable {\n        CEO = msg.sender;\n    }\n\n    // 匿名函数，当外部调用找不到时调用该函数\n\tevent FallbackTrigged(bytes data);\n\tfunction() public payable {\n\t\tFallbackTrigged(msg.data);\n\t}\n\n    // 从卡片商城中购买卡片\n    function buyCard(uint cardId) public payable returns (bool) {\n        address buyer = msg.sender;\n        // 判断card下标是否合法，不合法时退款给买家\n        if (cardId >= cards.length || cardId < 0) {\n            buyer.transfer(msg.value);\n            return false;       \n        }\n        Card storage card = cards[cardId];\n        // 判断消费金额是否小于card价格\n        if (msg.value < card.value) {\n            buyer.transfer(msg.value);\n            return false;\n        } \n        // 判断卡片是否正在销售\n        if (!card.isSelling) {\n            buyer.transfer(msg.value);\n            return false;\n        }\n        // 将卡片卖的钱还给卖家\n        if (this.balance >= card.value) {\n            card.owner.transfer(card.value);\n        }\n        card.owner = buyer;\n        card.isSelling = false;\n        return true;\n    }\n\n    // 用户卖自己的卡片给合约\n    function sellCard(uint cardId) public payable returns (bool) {\n        address seller = msg.sender;\n        // 判断卡片下标是否合法\n        if (cardId >= cards.length || cardId < 0) {\n            seller.transfer(msg.value);\n            return false;       \n        }\n        Card storage card = cards[cardId];\n        // 判断卖家是否为卡片拥有者\n        if (seller != card.owner) {\n            seller.transfer(msg.value);\n            return false;\n        }\n        if (card.isSelling) {\n            seller.transfer(msg.value);\n            return false;\n        }\n        card.isSelling = true;\n        card.value = msg.value;\n        return true;\n    }\n\n    // 用户取消出售卡片\n    function cancelSellCard(uint cardId) public payable returns (bool) {\n        // 判断卡片下标是否合法\n        if (cardId >= cards.length || cardId < 0) {\n            return false;       \n        }\n        Card storage card = cards[cardId];\n        if (card.owner != msg.sender) {\n            return false;\n        }\n        if (!card.isSelling) {\n            return false;\n        }\n        msg.sender.transfer(card.value);\n        card.isSelling = false;\n        return true;\n    }\n\n    // 用户交换卡片\n    function exchangeCard(uint cardId, address otherUser) public returns (bool) {\n        // 判断卡片下标是否合法\n        if (cardId >= cards.length || cardId < 0) {\n            return false;       \n        }\n        Card storage card = cards[cardId];\n        // 判断卡片拥有者\n        if (card.owner != msg.sender) {\n            return false;\n        }\n        // 判断卡片是否正在出售\n        if (card.isSelling) {\n            return false;\n        }\n        card.owner = otherUser;\n        return true;\n    }\n\n    // 获取用户所有卡片\n    function getAllCardsForUser() public returns (Card[]) {\n        Card[] storage userCards;\n        for (uint i = 0; i < cards.length; i++) {\n            Card card = cards[i];\n            if (card.owner == msg.sender) {\n                userCards.push(card);\n            }\n        }\n        return userCards;\n    }\n\n    // 给用户掉落新卡片\n    function createNewCardForUser(string code, uint value) public returns (Card card) {\n        card = Card({code: code, value: value, owner: msg.sender, isSelling: false, cardId: cards.length});\n        cards.push(card);\n    }\n\n}",
  "sourcePath": "/Users/forrestlin/DApps/QzoneBlockPet/contracts/PetCard.sol",
  "compiler": {
    "name": "solc",
    "version": "0.4.18+commit.9cf6e910.Emscripten.clang"
  },
  "schemaVersion": "1.0.1",
  "updatedAt": "2018-01-09T07:57:32.118Z"
}