{
  "contractName": "PetCard",
  "abi": [
    {
      "constant": false,
      "inputs": [
        {
          "name": "cardId",
          "type": "uint256"
        }
      ],
      "name": "buyCard",
      "outputs": [
        {
          "name": "",
          "type": "bool"
        }
      ],
      "payable": false,
      "stateMutability": "nonpayable",
      "type": "function"
    },
    {
      "inputs": [],
      "payable": true,
      "stateMutability": "payable",
      "type": "constructor"
    }
  ],
  "bytecode": "0x606060405233600260006101000a81548173ffffffffffffffffffffffffffffffffffffffff021916908373ffffffffffffffffffffffffffffffffffffffff160217905550610278806100546000396000f300606060405260043610610041576000357c0100000000000000000000000000000000000000000000000000000000900463ffffffff168063c70f5eaa14610046575b600080fd5b341561005157600080fd5b6100676004808035906020019091905050610081565b604051808215151515815260200191505060405180910390f35b6000806000803392506000805490508510158061009e5750600085105b156100ac57600093506101f3565b6000858154811015156100bb57fe5b9060005260206000209060030201915081600101543410156100e057600093506101f3565b3090508073ffffffffffffffffffffffffffffffffffffffff168260020160009054906101000a900473ffffffffffffffffffffffffffffffffffffffff1673ffffffffffffffffffffffffffffffffffffffff1614151561014557600093506101f3565b828260020160006101000a81548173ffffffffffffffffffffffffffffffffffffffff021916908373ffffffffffffffffffffffffffffffffffffffff160217905550600160008473ffffffffffffffffffffffffffffffffffffffff1673ffffffffffffffffffffffffffffffffffffffff16815260200190815260200160002080548060010182816101d991906101fb565b916000526020600020900160008790919091505550600193505b505050919050565b815481835581811511610222578183600052602060002091820191016102219190610227565b5b505050565b61024991905b8082111561024557600081600090555060010161022d565b5090565b905600a165627a7a723058205408bf5653e4196d7f032929d9bdaa0230a995a0b92e275669df0ca441d9082f0029",
  "source": "pragma solidity ^0.4.17;\n\ncontract PetCard {\n    struct Card {\n        string code;\n        uint256 value;\n        address owner;\n    }\n    Card[] cards;\n    mapping (address => uint[]) userCardDict;\n    address CEO;\n    function PetCard() public payable {\n        CEO = msg.sender;\n    }\n    function buyCard(uint cardId) public returns (bool) {\n        address buyer = msg.sender;\n        if (cardId >= cards.length || cardId < 0) {\n            return false;       \n        }\n        Card card = cards[cardId];\n        if (msg.value < card.value) {\n            return false;\n        } \n        address myAddress = this;\n        if (card.owner != myAddress) {\n            return false;\n        }\n        card.owner = buyer;\n        userCardDict[buyer].push(cardId);\n        return true;\n    }\n}",
  "sourcePath": "/Users/forrestlin/DApps/QzoneBlockPet/contracts/PetCard.sol",
  "compiler": {
    "name": "solc",
    "version": "0.4.18+commit.9cf6e910.Emscripten.clang"
  },
  "schemaVersion": "1.0.1",
  "updatedAt": "2018-01-08T09:59:26.248Z"
}