{
  "contractName": "PetCard",
  "abi": [
    {
      "constant": false,
      "inputs": [
        {
          "name": "code",
          "type": "string"
        },
        {
          "name": "value",
          "type": "uint256"
        }
      ],
      "name": "createNewCardForUser",
      "outputs": [],
      "payable": false,
      "stateMutability": "nonpayable",
      "type": "function"
    },
    {
      "constant": false,
      "inputs": [
        {
          "name": "cardId",
          "type": "uint256"
        }
      ],
      "name": "cancelSellCard",
      "outputs": [],
      "payable": true,
      "stateMutability": "payable",
      "type": "function"
    },
    {
      "constant": false,
      "inputs": [
        {
          "name": "cardId",
          "type": "uint256"
        },
        {
          "name": "otherUser",
          "type": "address"
        }
      ],
      "name": "exchangeCard",
      "outputs": [],
      "payable": false,
      "stateMutability": "nonpayable",
      "type": "function"
    },
    {
      "constant": true,
      "inputs": [],
      "name": "getAllCardsForUser",
      "outputs": [
        {
          "name": "cardIds",
          "type": "uint256[]"
        },
        {
          "name": "len",
          "type": "uint256"
        }
      ],
      "payable": false,
      "stateMutability": "view",
      "type": "function"
    },
    {
      "constant": false,
      "inputs": [
        {
          "name": "cardId",
          "type": "uint256"
        }
      ],
      "name": "sellCard",
      "outputs": [],
      "payable": true,
      "stateMutability": "payable",
      "type": "function"
    },
    {
      "constant": false,
      "inputs": [
        {
          "name": "cardId",
          "type": "uint256"
        }
      ],
      "name": "buyCard",
      "outputs": [],
      "payable": true,
      "stateMutability": "payable",
      "type": "function"
    },
    {
      "inputs": [],
      "payable": true,
      "stateMutability": "payable",
      "type": "constructor"
    },
    {
      "payable": true,
      "stateMutability": "payable",
      "type": "fallback"
    },
    {
      "anonymous": false,
      "inputs": [
        {
          "indexed": false,
          "name": "data",
          "type": "bytes"
        }
      ],
      "name": "FallbackTrigged",
      "type": "event"
    },
    {
      "anonymous": false,
      "inputs": [
        {
          "indexed": false,
          "name": "cardId",
          "type": "uint256"
        },
        {
          "indexed": false,
          "name": "isSuccess",
          "type": "bool"
        },
        {
          "indexed": false,
          "name": "errorCode",
          "type": "uint8"
        }
      ],
      "name": "BuyCardEvent",
      "type": "event"
    },
    {
      "anonymous": false,
      "inputs": [
        {
          "indexed": false,
          "name": "cardId",
          "type": "uint256"
        },
        {
          "indexed": false,
          "name": "isSuccess",
          "type": "bool"
        },
        {
          "indexed": false,
          "name": "errorCode",
          "type": "uint8"
        }
      ],
      "name": "SellCardEvent",
      "type": "event"
    },
    {
      "anonymous": false,
      "inputs": [
        {
          "indexed": false,
          "name": "cardId",
          "type": "uint256"
        },
        {
          "indexed": false,
          "name": "isSuccess",
          "type": "bool"
        },
        {
          "indexed": false,
          "name": "errorCode",
          "type": "uint8"
        }
      ],
      "name": "CancelSellCardEvent",
      "type": "event"
    },
    {
      "anonymous": false,
      "inputs": [
        {
          "indexed": false,
          "name": "cardId",
          "type": "uint256"
        },
        {
          "indexed": false,
          "name": "newOwner",
          "type": "address"
        },
        {
          "indexed": false,
          "name": "isSucess",
          "type": "bool"
        },
        {
          "indexed": false,
          "name": "errorCode",
          "type": "uint8"
        }
      ],
      "name": "ExchangeCardEvent",
      "type": "event"
    },
    {
      "anonymous": false,
      "inputs": [
        {
          "indexed": false,
          "name": "cardId",
          "type": "uint256"
        },
        {
          "indexed": false,
          "name": "code",
          "type": "string"
        },
        {
          "indexed": false,
          "name": "owner",
          "type": "address"
        },
        {
          "indexed": false,
          "name": "value",
          "type": "uint256"
        }
      ],
      "name": "CreateNewCardEvent",
      "type": "event"
    }
  ],
  "bytecode": "0x606060405233600160006101000a81548173ffffffffffffffffffffffffffffffffffffffff021916908373ffffffffffffffffffffffffffffffffffffffff16021790555061144e806100546000396000f300606060405260043610610078576000357c0100000000000000000000000000000000000000000000000000000000900463ffffffff168063087a9fda146100cc5780633c0af01d146101325780634244b29d1461014a57806376667cb31461018c578063871238e4146101fd578063c70f5eaa14610215575b7fe1d5bef947f36a9d6903a61d643fe4053e7897f1b3136059d255e83c547c0be2600036604051808060200182810382528484828181526020019250808284378201915050935050505060405180910390a1005b34156100d757600080fd5b610130600480803590602001908201803590602001908080601f0160208091040260200160405190810160405280939291908181526020018383808284378201915050505050509190803590602001909190505061022d565b005b6101486004808035906020019091905050610437565b005b341561015557600080fd5b61018a600480803590602001909190803573ffffffffffffffffffffffffffffffffffffffff169060200190919050506106b5565b005b341561019757600080fd5b61019f610a75565b6040518080602001838152602001828103825284818151815260200191508051906020019060200280838360005b838110156101e85780820151818401526020810190506101cd565b50505050905001935050505060405180910390f35b6102136004808035906020019091905050610b88565b005b61022b6004808035906020019091905050610e90565b005b610235611213565b60a0604051908101604052808481526020018381526020013373ffffffffffffffffffffffffffffffffffffffff1681526020016000151581526020016000805490508152509050600080548060010182816102919190611261565b9160005260206000209060040201600083909190915060008201518160000190805190602001906102c3929190611293565b506020820151816001015560408201518160020160006101000a81548173ffffffffffffffffffffffffffffffffffffffff021916908373ffffffffffffffffffffffffffffffffffffffff16021790555060608201518160020160146101000a81548160ff021916908315150217905550608082015181600301555050507fdcfd0a85cf7735ec42ca5898baf82c047d9c5afd7995cd61ea20189c0ad31504816080015182600001518360400151846020015160405180858152602001806020018473ffffffffffffffffffffffffffffffffffffffff1673ffffffffffffffffffffffffffffffffffffffff168152602001838152602001828103825285818151815260200191508051906020019080838360005b838110156103f55780820151818401526020810190506103da565b50505050905090810190601f1680156104225780820380516001836020036101000a031916815260200191505b509550505050505060405180910390a1505050565b600080805490508210158061044c5750600082105b156104ad577fd03e72c47d0f6e9ea2f010f08a9aed6c3d39551e7fd3690d8ac1f24489cf23ec8260006001604051808481526020018315151515815260200182600581111561049757fe5b60ff168152602001935050505060405180910390a15b6000828154811015156104bc57fe5b906000526020600020906004020190503373ffffffffffffffffffffffffffffffffffffffff168160020160009054906101000a900473ffffffffffffffffffffffffffffffffffffffff1673ffffffffffffffffffffffffffffffffffffffff16141515610581577fd03e72c47d0f6e9ea2f010f08a9aed6c3d39551e7fd3690d8ac1f24489cf23ec8260006002604051808481526020018315151515815260200182600581111561056b57fe5b60ff168152602001935050505060405180910390a15b8060020160149054906101000a900460ff1615156105f5577fd03e72c47d0f6e9ea2f010f08a9aed6c3d39551e7fd3690d8ac1f24489cf23ec826000600460405180848152602001831515151581526020018260058111156105df57fe5b60ff168152602001935050505060405180910390a15b3373ffffffffffffffffffffffffffffffffffffffff166108fc82600101549081150290604051600060405180830381858888f19350505050151561063957600080fd5b60008160020160146101000a81548160ff0219169083151502179055507fd03e72c47d0f6e9ea2f010f08a9aed6c3d39551e7fd3690d8ac1f24489cf23ec8260016000604051808481526020018315151515815260200182600581111561069c57fe5b60ff168152602001935050505060405180910390a15050565b60008080549050831015806106ca5750600083105b15610783577f50d8d633276cc18bbe2c97be7a16c463348646bae606770cab9e27f678010d83838260020160009054906101000a900473ffffffffffffffffffffffffffffffffffffffff1660006001604051808581526020018473ffffffffffffffffffffffffffffffffffffffff1673ffffffffffffffffffffffffffffffffffffffff1681526020018315151515815260200182600581111561076c57fe5b60ff16815260200194505050505060405180910390a15b60008381548110151561079257fe5b906000526020600020906004020190503373ffffffffffffffffffffffffffffffffffffffff168160020160009054906101000a900473ffffffffffffffffffffffffffffffffffffffff1673ffffffffffffffffffffffffffffffffffffffff161415156108af577f50d8d633276cc18bbe2c97be7a16c463348646bae606770cab9e27f678010d83838260020160009054906101000a900473ffffffffffffffffffffffffffffffffffffffff1660006002604051808581526020018473ffffffffffffffffffffffffffffffffffffffff1673ffffffffffffffffffffffffffffffffffffffff1681526020018315151515815260200182600581111561089857fe5b60ff16815260200194505050505060405180910390a15b8060020160149054906101000a900460ff161561097a577f50d8d633276cc18bbe2c97be7a16c463348646bae606770cab9e27f678010d83838260020160009054906101000a900473ffffffffffffffffffffffffffffffffffffffff1660006003604051808581526020018473ffffffffffffffffffffffffffffffffffffffff1673ffffffffffffffffffffffffffffffffffffffff1681526020018315151515815260200182600581111561096357fe5b60ff16815260200194505050505060405180910390a15b818160020160006101000a81548173ffffffffffffffffffffffffffffffffffffffff021916908373ffffffffffffffffffffffffffffffffffffffff1602179055507f50d8d633276cc18bbe2c97be7a16c463348646bae606770cab9e27f678010d83838260020160009054906101000a900473ffffffffffffffffffffffffffffffffffffffff1660016000604051808581526020018473ffffffffffffffffffffffffffffffffffffffff1673ffffffffffffffffffffffffffffffffffffffff16815260200183151515158152602001826005811115610a5a57fe5b60ff16815260200194505050505060405180910390a1505050565b610a7d611313565b600080600080549050604051805910610a935750595b9080825280602002602001820160405250925060009150600090505b600080549050811015610b83573373ffffffffffffffffffffffffffffffffffffffff16600082815481101515610ae257fe5b906000526020600020906004020160020160009054906101000a900473ffffffffffffffffffffffffffffffffffffffff1673ffffffffffffffffffffffffffffffffffffffff161415610b7657600081815481101515610b3f57fe5b9060005260206000209060040201600301548383815181101515610b5f57fe5b906020019060200201818152505081806001019250505b8080600101915050610aaf565b509091565b60008033915060008054905083101580610ba25750600083105b15610c43578173ffffffffffffffffffffffffffffffffffffffff166108fc349081150290604051600060405180830381858888f193505050501515610be757600080fd5b7fba2086e2f26be2b59f7c73dbbfb530926172501c902145f11fecc8e27e64b59783600060016040518084815260200183151515158152602001826005811115610c2d57fe5b60ff168152602001935050505060405180910390a15b600083815481101515610c5257fe5b906000526020600020906004020190508060020160009054906101000a900473ffffffffffffffffffffffffffffffffffffffff1673ffffffffffffffffffffffffffffffffffffffff168273ffffffffffffffffffffffffffffffffffffffff16141515610d57578173ffffffffffffffffffffffffffffffffffffffff166108fc349081150290604051600060405180830381858888f193505050501515610cfb57600080fd5b7fba2086e2f26be2b59f7c73dbbfb530926172501c902145f11fecc8e27e64b59783600060026040518084815260200183151515158152602001826005811115610d4157fe5b60ff168152602001935050505060405180910390a15b8060020160149054906101000a900460ff1615610e0a578173ffffffffffffffffffffffffffffffffffffffff166108fc349081150290604051600060405180830381858888f193505050501515610dae57600080fd5b7fba2086e2f26be2b59f7c73dbbfb530926172501c902145f11fecc8e27e64b59783600060036040518084815260200183151515158152602001826005811115610df457fe5b60ff168152602001935050505060405180910390a15b60018160020160146101000a81548160ff0219169083151502179055503481600101819055507fba2086e2f26be2b59f7c73dbbfb530926172501c902145f11fecc8e27e64b59783600160006040518084815260200183151515158152602001826005811115610e7657fe5b60ff168152602001935050505060405180910390a1505050565b60008033915060008054905083101580610eaa5750600083105b15610f4b578173ffffffffffffffffffffffffffffffffffffffff166108fc349081150290604051600060405180830381858888f193505050501515610eef57600080fd5b7ff718d7ccbce22af7188d0743a792864a132ed3df30959bad4fc92d12e5a83dfa83600060016040518084815260200183151515158152602001826005811115610f3557fe5b60ff168152602001935050505060405180910390a15b600083815481101515610f5a57fe5b906000526020600020906004020190508060010154341015611012578173ffffffffffffffffffffffffffffffffffffffff166108fc349081150290604051600060405180830381858888f193505050501515610fb657600080fd5b7ff718d7ccbce22af7188d0743a792864a132ed3df30959bad4fc92d12e5a83dfa83600060056040518084815260200183151515158152602001826005811115610ffc57fe5b60ff168152602001935050505060405180910390a15b8060020160149054906101000a900460ff1615156110c6578173ffffffffffffffffffffffffffffffffffffffff166108fc349081150290604051600060405180830381858888f19350505050151561106a57600080fd5b7ff718d7ccbce22af7188d0743a792864a132ed3df30959bad4fc92d12e5a83dfa836000600460405180848152602001831515151581526020018260058111156110b057fe5b60ff168152602001935050505060405180910390a15b80600101543073ffffffffffffffffffffffffffffffffffffffff1631101515611153578060020160009054906101000a900473ffffffffffffffffffffffffffffffffffffffff1673ffffffffffffffffffffffffffffffffffffffff166108fc82600101549081150290604051600060405180830381858888f19350505050151561115257600080fd5b5b818160020160006101000a81548173ffffffffffffffffffffffffffffffffffffffff021916908373ffffffffffffffffffffffffffffffffffffffff16021790555060008160020160146101000a81548160ff0219169083151502179055507ff718d7ccbce22af7188d0743a792864a132ed3df30959bad4fc92d12e5a83dfa836001600060405180848152602001831515151581526020018260058111156111f957fe5b60ff168152602001935050505060405180910390a1505050565b60a060405190810160405280611227611327565b815260200160008152602001600073ffffffffffffffffffffffffffffffffffffffff168152602001600015158152602001600081525090565b81548183558181151161128e5760040281600402836000526020600020918201910161128d919061133b565b5b505050565b828054600181600116156101000203166002900490600052602060002090601f016020900481019282601f106112d457805160ff1916838001178555611302565b82800160010185558215611302579182015b828111156113015782518255916020019190600101906112e6565b5b50905061130f91906113b5565b5090565b602060405190810160405280600081525090565b602060405190810160405280600081525090565b6113b291905b808211156113ae576000808201600061135a91906113da565b60018201600090556002820160006101000a81549073ffffffffffffffffffffffffffffffffffffffff02191690556002820160146101000a81549060ff0219169055600382016000905550600401611341565b5090565b90565b6113d791905b808211156113d35760008160009055506001016113bb565b5090565b90565b50805460018160011615610100020316600290046000825580601f10611400575061141f565b601f01602090049060005260206000209081019061141e91906113b5565b5b505600a165627a7a723058202b7f4be486312df0b632a74168e7768e49ee45e76e5fd061055b89d60f8091e10029",
  "source": "pragma solidity ^0.4.17;\n\ncontract PetCard {\n    struct Card {\n        string code; //卡片代码，决定卡片的功能\n        uint256 value;\n        address owner;\n        bool isSelling;\n        uint cardId;\n    }\n    enum ErrorCode {ERROR_NO_ERROR, ERROR_INDEX_OUT_OF_RANGE, ERROR_WRONG_OWNER, ERROR_CARD_IS_SELLING, ERROR_CARD_IS_NOT_SELLING, ERROR_PRICE_NOT_ENOUGH}\n    Card[] cards;\n    address CEO;\n    function PetCard() public payable {\n        CEO = msg.sender;\n    }\n\n    // 匿名函数，当外部调用找不到时调用该函数\n\tevent FallbackTrigged(bytes data);\n\tfunction() public payable {\n\t\tFallbackTrigged(msg.data);\n\t}\n\n    event BuyCardEvent(uint cardId, bool isSuccess, ErrorCode errorCode);\n    // 从卡片商城中购买卡片\n    function buyCard(uint cardId) public payable {\n        address buyer = msg.sender;\n        // 判断card下标是否合法，不合法时退款给买家\n        if (cardId >= cards.length || cardId < 0) {\n            buyer.transfer(msg.value);\n            BuyCardEvent(cardId, false, ErrorCode.ERROR_INDEX_OUT_OF_RANGE);\n        }\n        Card storage card = cards[cardId];\n        // 判断消费金额是否小于card价格\n        if (msg.value < card.value) {\n            buyer.transfer(msg.value);\n            BuyCardEvent(cardId, false, ErrorCode.ERROR_PRICE_NOT_ENOUGH);\n        } \n        // 判断卡片是否正在销售\n        if (!card.isSelling) {\n            buyer.transfer(msg.value);\n            BuyCardEvent(cardId, false, ErrorCode.ERROR_CARD_IS_NOT_SELLING);\n        }\n        // 将卡片卖的钱还给卖家\n        if (this.balance >= card.value) {\n            card.owner.transfer(card.value);\n        }\n        card.owner = buyer;\n        card.isSelling = false;\n        BuyCardEvent(cardId, true, ErrorCode.ERROR_NO_ERROR);\n    }\n\n    event SellCardEvent(uint cardId, bool isSuccess, ErrorCode errorCode);\n    // 用户卖自己的卡片给合约\n    function sellCard(uint cardId) public payable {\n        address seller = msg.sender;\n        // 判断卡片下标是否合法\n        if (cardId >= cards.length || cardId < 0) {\n            seller.transfer(msg.value);\n            SellCardEvent(cardId, false, ErrorCode.ERROR_INDEX_OUT_OF_RANGE);\n        }\n        Card storage card = cards[cardId];\n        // 判断卖家是否为卡片拥有者\n        if (seller != card.owner) {\n            seller.transfer(msg.value);\n            SellCardEvent(cardId, false, ErrorCode.ERROR_WRONG_OWNER);\n        }\n        if (card.isSelling) {\n            seller.transfer(msg.value);\n            SellCardEvent(cardId, false, ErrorCode.ERROR_CARD_IS_SELLING);\n        }\n        card.isSelling = true;\n        card.value = msg.value;\n        SellCardEvent(cardId, true, ErrorCode.ERROR_NO_ERROR);\n    }\n\n    event CancelSellCardEvent(uint cardId, bool isSuccess, ErrorCode errorCode);\n    // 用户取消出售卡片\n    function cancelSellCard(uint cardId) public payable {\n        // 判断卡片下标是否合法\n        if (cardId >= cards.length || cardId < 0) {\n            CancelSellCardEvent(cardId, false, ErrorCode.ERROR_INDEX_OUT_OF_RANGE);\n        }\n        Card storage card = cards[cardId];\n        if (card.owner != msg.sender) {\n            CancelSellCardEvent(cardId, false, ErrorCode.ERROR_WRONG_OWNER);\n        }\n        if (!card.isSelling) {\n            CancelSellCardEvent(cardId, false, ErrorCode.ERROR_CARD_IS_NOT_SELLING);\n        }\n        msg.sender.transfer(card.value);\n        card.isSelling = false;\n        CancelSellCardEvent(cardId, true, ErrorCode.ERROR_NO_ERROR);\n    }\n\n    event ExchangeCardEvent(uint cardId, address newOwner, bool isSucess, ErrorCode errorCode);\n    // 用户交换卡片\n    function exchangeCard(uint cardId, address otherUser) public {\n        // 判断卡片下标是否合法\n        if (cardId >= cards.length || cardId < 0) {\n            ExchangeCardEvent(cardId, card.owner, false, ErrorCode.ERROR_INDEX_OUT_OF_RANGE);      \n        }\n        Card storage card = cards[cardId];\n        // 判断卡片拥有者\n        if (card.owner != msg.sender) {\n            ExchangeCardEvent(cardId, card.owner, false, ErrorCode.ERROR_WRONG_OWNER);\n        }\n        // 判断卡片是否正在出售\n        if (card.isSelling) {\n            ExchangeCardEvent(cardId, card.owner, false, ErrorCode.ERROR_CARD_IS_SELLING);\n        }\n        card.owner = otherUser;\n        ExchangeCardEvent(cardId, card.owner, true, ErrorCode.ERROR_NO_ERROR);\n    }\n\n    // 获取用户所有卡片\n    function getAllCardsForUser() public constant returns (uint[] cardIds, uint len) {\n        cardIds = new uint[](cards.length);\n        // codes = new string[](cards.length);\n        len = 0;\n        for (uint i = 0; i < cards.length; i++) {\n            if (cards[i].owner == msg.sender) {\n                cardIds[len] = cards[i].cardId;\n                // codes[len] = cards[i].code;\n                len++;\n            }\n        }\n    }\n\n    event CreateNewCardEvent(uint cardId, string code, address owner, uint value);\n    // 给用户掉落新卡片\n    function createNewCardForUser(string code, uint value) public {\n        Card memory card = Card({code: code, value: value, owner: msg.sender, isSelling: false, cardId: cards.length});\n        cards.push(card);\n        CreateNewCardEvent(card.cardId, card.code, card.owner, card.value);\n    }\n\n}",
  "sourcePath": "/Users/forrestlin/DApps/QzoneBlockPet/contracts/PetCard.sol",
  "compiler": {
    "name": "solc",
    "version": "0.4.18+commit.9cf6e910.Emscripten.clang"
  },
  "schemaVersion": "1.0.1",
  "updatedAt": "2018-01-10T05:32:42.322Z"
}