{
  "contractName": "PetCard",
  "abi": [
    {
      "constant": false,
      "inputs": [
        {
          "name": "cardId",
          "type": "uint256"
        }
      ],
      "name": "cancelSellCard",
      "outputs": [],
      "payable": false,
      "stateMutability": "nonpayable",
      "type": "function"
    },
    {
      "constant": false,
      "inputs": [
        {
          "name": "cardId",
          "type": "uint256"
        },
        {
          "name": "otherUser",
          "type": "address"
        }
      ],
      "name": "exchangeCard",
      "outputs": [],
      "payable": false,
      "stateMutability": "nonpayable",
      "type": "function"
    },
    {
      "constant": false,
      "inputs": [
        {
          "name": "code",
          "type": "bytes32"
        },
        {
          "name": "value",
          "type": "uint256"
        }
      ],
      "name": "createNewCardForUser",
      "outputs": [],
      "payable": false,
      "stateMutability": "nonpayable",
      "type": "function"
    },
    {
      "constant": true,
      "inputs": [],
      "name": "getAllCardsForUser",
      "outputs": [
        {
          "name": "cardIds",
          "type": "uint256[]"
        },
        {
          "name": "codes",
          "type": "bytes32[]"
        },
        {
          "name": "values",
          "type": "uint256[]"
        },
        {
          "name": "len",
          "type": "uint256"
        }
      ],
      "payable": false,
      "stateMutability": "view",
      "type": "function"
    },
    {
      "constant": false,
      "inputs": [
        {
          "name": "cardId",
          "type": "uint256"
        }
      ],
      "name": "sellCard",
      "outputs": [],
      "payable": true,
      "stateMutability": "payable",
      "type": "function"
    },
    {
      "constant": false,
      "inputs": [
        {
          "name": "cardId",
          "type": "uint256"
        }
      ],
      "name": "buyCard",
      "outputs": [],
      "payable": true,
      "stateMutability": "payable",
      "type": "function"
    },
    {
      "inputs": [],
      "payable": true,
      "stateMutability": "payable",
      "type": "constructor"
    },
    {
      "payable": true,
      "stateMutability": "payable",
      "type": "fallback"
    },
    {
      "anonymous": false,
      "inputs": [
        {
          "indexed": false,
          "name": "data",
          "type": "bytes"
        }
      ],
      "name": "FallbackTrigged",
      "type": "event"
    },
    {
      "anonymous": false,
      "inputs": [
        {
          "indexed": false,
          "name": "cardId",
          "type": "uint256"
        },
        {
          "indexed": false,
          "name": "isSuccess",
          "type": "bool"
        },
        {
          "indexed": false,
          "name": "errorCode",
          "type": "uint8"
        }
      ],
      "name": "BuyCardEvent",
      "type": "event"
    },
    {
      "anonymous": false,
      "inputs": [
        {
          "indexed": false,
          "name": "cardId",
          "type": "uint256"
        },
        {
          "indexed": false,
          "name": "isSuccess",
          "type": "bool"
        },
        {
          "indexed": false,
          "name": "errorCode",
          "type": "uint8"
        }
      ],
      "name": "SellCardEvent",
      "type": "event"
    },
    {
      "anonymous": false,
      "inputs": [
        {
          "indexed": false,
          "name": "cardId",
          "type": "uint256"
        },
        {
          "indexed": false,
          "name": "isSuccess",
          "type": "bool"
        },
        {
          "indexed": false,
          "name": "errorCode",
          "type": "uint8"
        }
      ],
      "name": "CancelSellCardEvent",
      "type": "event"
    },
    {
      "anonymous": false,
      "inputs": [
        {
          "indexed": false,
          "name": "cardId",
          "type": "uint256"
        },
        {
          "indexed": false,
          "name": "newOwner",
          "type": "address"
        },
        {
          "indexed": false,
          "name": "isSucess",
          "type": "bool"
        },
        {
          "indexed": false,
          "name": "errorCode",
          "type": "uint8"
        }
      ],
      "name": "ExchangeCardEvent",
      "type": "event"
    },
    {
      "anonymous": false,
      "inputs": [
        {
          "indexed": false,
          "name": "cardId",
          "type": "uint256"
        },
        {
          "indexed": false,
          "name": "code",
          "type": "bytes32"
        },
        {
          "indexed": false,
          "name": "owner",
          "type": "address"
        },
        {
          "indexed": false,
          "name": "value",
          "type": "uint256"
        }
      ],
      "name": "CreateNewCardEvent",
      "type": "event"
    }
  ],
  "bytecode": "0x606060405233600160006101000a81548173ffffffffffffffffffffffffffffffffffffffff021916908373ffffffffffffffffffffffffffffffffffffffff160217905550611495806100546000396000f300606060405260043610610078576000357c0100000000000000000000000000000000000000000000000000000000900463ffffffff1680633c0af01d146100cc5780634244b29d146100ef57806353edd9801461013157806376667cb314610161578063871238e414610262578063c70f5eaa1461027a575b7fe1d5bef947f36a9d6903a61d643fe4053e7897f1b3136059d255e83c547c0be2600036604051808060200182810382528484828181526020019250808284378201915050935050505060405180910390a1005b34156100d757600080fd5b6100ed6004808035906020019091905050610292565b005b34156100fa57600080fd5b61012f600480803590602001909190803573ffffffffffffffffffffffffffffffffffffffff1690602001909190505061051d565b005b341561013c57600080fd5b61015f6004808035600019169060200190919080359060200190919050506108ea565b005b341561016c57600080fd5b610174610a9f565b60405180806020018060200180602001858152602001848103845288818151815260200191508051906020019060200280838360005b838110156101c55780820151818401526020810190506101aa565b50505050905001848103835287818151815260200191508051906020019060200280838360005b838110156102075780820151818401526020810190506101ec565b50505050905001848103825286818151815260200191508051906020019060200280838360005b8381101561024957808201518184015260208101905061022e565b5050505090500197505050505050505060405180910390f35b6102786004808035906020019091905050610c94565b005b6102906004808035906020019091905050610fa9565b005b60008080549050821015806102a75750600082105b1561030c577fd03e72c47d0f6e9ea2f010f08a9aed6c3d39551e7fd3690d8ac1f24489cf23ec826000600160405180848152602001831515151581526020018260058111156102f257fe5b60ff168152602001935050505060405180910390a1610519565b60008281548110151561031b57fe5b906000526020600020906005020190503373ffffffffffffffffffffffffffffffffffffffff168160020160009054906101000a900473ffffffffffffffffffffffffffffffffffffffff1673ffffffffffffffffffffffffffffffffffffffff161415156103e4577fd03e72c47d0f6e9ea2f010f08a9aed6c3d39551e7fd3690d8ac1f24489cf23ec826000600260405180848152602001831515151581526020018260058111156103ca57fe5b60ff168152602001935050505060405180910390a1610519565b8060020160149054906101000a900460ff16151561045c577fd03e72c47d0f6e9ea2f010f08a9aed6c3d39551e7fd3690d8ac1f24489cf23ec8260006004604051808481526020018315151515815260200182600581111561044257fe5b60ff168152602001935050505060405180910390a1610519565b3373ffffffffffffffffffffffffffffffffffffffff166108fc82600301549081150290604051600060405180830381858888f1935050505015156104a057600080fd5b60008160020160146101000a81548160ff0219169083151502179055507fd03e72c47d0f6e9ea2f010f08a9aed6c3d39551e7fd3690d8ac1f24489cf23ec8260016000604051808481526020018315151515815260200182600581111561050357fe5b60ff168152602001935050505060405180910390a15b5050565b60008080549050831015806105325750600083105b156105ef577f50d8d633276cc18bbe2c97be7a16c463348646bae606770cab9e27f678010d83838260020160009054906101000a900473ffffffffffffffffffffffffffffffffffffffff1660006001604051808581526020018473ffffffffffffffffffffffffffffffffffffffff1673ffffffffffffffffffffffffffffffffffffffff168152602001831515151581526020018260058111156105d457fe5b60ff16815260200194505050505060405180910390a16108e5565b6000838154811015156105fe57fe5b906000526020600020906005020190503373ffffffffffffffffffffffffffffffffffffffff168160020160009054906101000a900473ffffffffffffffffffffffffffffffffffffffff1673ffffffffffffffffffffffffffffffffffffffff1614151561071f577f50d8d633276cc18bbe2c97be7a16c463348646bae606770cab9e27f678010d83838260020160009054906101000a900473ffffffffffffffffffffffffffffffffffffffff1660006002604051808581526020018473ffffffffffffffffffffffffffffffffffffffff1673ffffffffffffffffffffffffffffffffffffffff1681526020018315151515815260200182600581111561070457fe5b60ff16815260200194505050505060405180910390a16108e5565b8060020160149054906101000a900460ff16156107ee577f50d8d633276cc18bbe2c97be7a16c463348646bae606770cab9e27f678010d83838260020160009054906101000a900473ffffffffffffffffffffffffffffffffffffffff1660006003604051808581526020018473ffffffffffffffffffffffffffffffffffffffff1673ffffffffffffffffffffffffffffffffffffffff168152602001831515151581526020018260058111156107d357fe5b60ff16815260200194505050505060405180910390a16108e5565b818160020160006101000a81548173ffffffffffffffffffffffffffffffffffffffff021916908373ffffffffffffffffffffffffffffffffffffffff1602179055507f50d8d633276cc18bbe2c97be7a16c463348646bae606770cab9e27f678010d83838260020160009054906101000a900473ffffffffffffffffffffffffffffffffffffffff1660016000604051808581526020018473ffffffffffffffffffffffffffffffffffffffff1673ffffffffffffffffffffffffffffffffffffffff168152602001831515151581526020018260058111156108ce57fe5b60ff16815260200194505050505060405180910390a15b505050565b6108f2611343565b60c060405190810160405280846000191681526020018381526020013373ffffffffffffffffffffffffffffffffffffffff168152602001600015158152602001600081526020016000805490508152509050600080548060010182816109599190611395565b91600052602060002090600502016000839091909150600082015181600001906000191690556020820151816001015560408201518160020160006101000a81548173ffffffffffffffffffffffffffffffffffffffff021916908373ffffffffffffffffffffffffffffffffffffffff16021790555060608201518160020160146101000a81548160ff0219169083151502179055506080820151816003015560a082015181600401555050507f173bb295395179be14247a048cce9b376914d26b6de0e2353b9d35b43783ddc78160a001518260000151836040015184602001516040518085815260200184600019166000191681526020018373ffffffffffffffffffffffffffffffffffffffff1673ffffffffffffffffffffffffffffffffffffffff16815260200182815260200194505050505060405180910390a1505050565b610aa76113c7565b610aaf6113db565b610ab76113c7565b600080600080549050604051805910610acd5750595b90808252806020026020018201604052509450600080549050604051805910610af35750595b90808252806020026020018201604052509350600080549050604051805910610b195750595b9080825280602002602001820160405250925060009150600090505b600080549050811015610c8d573373ffffffffffffffffffffffffffffffffffffffff16600082815481101515610b6857fe5b906000526020600020906005020160020160009054906101000a900473ffffffffffffffffffffffffffffffffffffffff1673ffffffffffffffffffffffffffffffffffffffff161415610c8057600081815481101515610bc557fe5b9060005260206000209060050201600401548583815181101515610be557fe5b9060200190602002018181525050600081815481101515610c0257fe5b9060005260206000209060050201600001548483815181101515610c2257fe5b906020019060200201906000191690816000191681525050600081815481101515610c4957fe5b9060005260206000209060050201600101548383815181101515610c6957fe5b906020019060200201818152505081806001019250505b8080600101915050610b35565b5090919293565b60008033915060008054905083101580610cae5750600083105b15610d53578173ffffffffffffffffffffffffffffffffffffffff166108fc349081150290604051600060405180830381858888f193505050501515610cf357600080fd5b7fba2086e2f26be2b59f7c73dbbfb530926172501c902145f11fecc8e27e64b59783600060016040518084815260200183151515158152602001826005811115610d3957fe5b60ff168152602001935050505060405180910390a1610fa4565b600083815481101515610d6257fe5b906000526020600020906005020190508060020160009054906101000a900473ffffffffffffffffffffffffffffffffffffffff1673ffffffffffffffffffffffffffffffffffffffff168273ffffffffffffffffffffffffffffffffffffffff16141515610e6b578173ffffffffffffffffffffffffffffffffffffffff166108fc349081150290604051600060405180830381858888f193505050501515610e0b57600080fd5b7fba2086e2f26be2b59f7c73dbbfb530926172501c902145f11fecc8e27e64b59783600060026040518084815260200183151515158152602001826005811115610e5157fe5b60ff168152602001935050505060405180910390a1610fa4565b8060020160149054906101000a900460ff1615610f22578173ffffffffffffffffffffffffffffffffffffffff166108fc349081150290604051600060405180830381858888f193505050501515610ec257600080fd5b7fba2086e2f26be2b59f7c73dbbfb530926172501c902145f11fecc8e27e64b59783600060036040518084815260200183151515158152602001826005811115610f0857fe5b60ff168152602001935050505060405180910390a1610fa4565b60018160020160146101000a81548160ff0219169083151502179055503481600301819055507fba2086e2f26be2b59f7c73dbbfb530926172501c902145f11fecc8e27e64b59783600160006040518084815260200183151515158152602001826005811115610f8e57fe5b60ff168152602001935050505060405180910390a15b505050565b60008033915060008054905083101580610fc35750600083105b15611068578173ffffffffffffffffffffffffffffffffffffffff166108fc349081150290604051600060405180830381858888f19350505050151561100857600080fd5b7ff718d7ccbce22af7188d0743a792864a132ed3df30959bad4fc92d12e5a83dfa8360006001604051808481526020018315151515815260200182600581111561104e57fe5b60ff168152602001935050505060405180910390a161133e565b60008381548110151561107757fe5b906000526020600020906005020190508060030154341015611133578173ffffffffffffffffffffffffffffffffffffffff166108fc349081150290604051600060405180830381858888f1935050505015156110d357600080fd5b7ff718d7ccbce22af7188d0743a792864a132ed3df30959bad4fc92d12e5a83dfa8360006005604051808481526020018315151515815260200182600581111561111957fe5b60ff168152602001935050505060405180910390a161133e565b8060020160149054906101000a900460ff1615156111eb578173ffffffffffffffffffffffffffffffffffffffff166108fc349081150290604051600060405180830381858888f19350505050151561118b57600080fd5b7ff718d7ccbce22af7188d0743a792864a132ed3df30959bad4fc92d12e5a83dfa836000600460405180848152602001831515151581526020018260058111156111d157fe5b60ff168152602001935050505060405180910390a161133e565b80600301543073ffffffffffffffffffffffffffffffffffffffff1631101515611278578060020160009054906101000a900473ffffffffffffffffffffffffffffffffffffffff1673ffffffffffffffffffffffffffffffffffffffff166108fc82600301549081150290604051600060405180830381858888f19350505050151561127757600080fd5b5b818160020160006101000a81548173ffffffffffffffffffffffffffffffffffffffff021916908373ffffffffffffffffffffffffffffffffffffffff16021790555060008160020160146101000a81548160ff021916908315150217905550600081600301819055507ff718d7ccbce22af7188d0743a792864a132ed3df30959bad4fc92d12e5a83dfa8360016000604051808481526020018315151515815260200182600581111561132857fe5b60ff168152602001935050505060405180910390a15b505050565b60c0604051908101604052806000801916815260200160008152602001600073ffffffffffffffffffffffffffffffffffffffff16815260200160001515815260200160008152602001600081525090565b8154818355818115116113c2576005028160050283600052602060002091820191016113c191906113ef565b5b505050565b602060405190810160405280600081525090565b602060405190810160405280600081525090565b61146691905b808211156114625760008082016000905560018201600090556002820160006101000a81549073ffffffffffffffffffffffffffffffffffffffff02191690556002820160146101000a81549060ff021916905560038201600090556004820160009055506005016113f5565b5090565b905600a165627a7a72305820f06d1a3d4f65d3e8b63283e79e91aaa96718d6c1de7e21d40b61f77be62b719d0029",
  "source": "pragma solidity ^0.4.17;\n\ncontract PetCard {\n    struct Card {\n        bytes32 code; //卡片代码，决定卡片的功能\n        uint256 value;\n        address owner;\n        bool isSelling;\n        uint sellingPrice;\n        uint cardId;\n    }\n    enum ErrorCode {ERROR_NO_ERROR, ERROR_INDEX_OUT_OF_RANGE, ERROR_WRONG_OWNER, ERROR_CARD_IS_SELLING, ERROR_CARD_IS_NOT_SELLING, ERROR_PRICE_NOT_ENOUGH}\n    Card[] cards;\n    address CEO;\n    function PetCard() public payable {\n        CEO = msg.sender;\n    }\n\n    // 匿名函数，当外部调用找不到时调用该函数\n\tevent FallbackTrigged(bytes data);\n\tfunction() public payable {\n\t\tFallbackTrigged(msg.data);\n\t}\n\n    event BuyCardEvent(uint cardId, bool isSuccess, ErrorCode errorCode);\n    // 从卡片商城中购买卡片\n    function buyCard(uint cardId) public payable {\n        address buyer = msg.sender;\n        // 判断card下标是否合法，不合法时退款给买家\n        if (cardId >= cards.length || cardId < 0) {\n            buyer.transfer(msg.value);\n            BuyCardEvent(cardId, false, ErrorCode.ERROR_INDEX_OUT_OF_RANGE);\n            return;\n        }\n        Card storage card = cards[cardId];\n        // 判断消费金额是否小于card价格\n        if (msg.value < card.sellingPrice) {\n            buyer.transfer(msg.value);\n            BuyCardEvent(cardId, false, ErrorCode.ERROR_PRICE_NOT_ENOUGH);\n            return;\n        } \n        // 判断卡片是否正在销售\n        if (!card.isSelling) {\n            buyer.transfer(msg.value);\n            BuyCardEvent(cardId, false, ErrorCode.ERROR_CARD_IS_NOT_SELLING);\n            return;\n        }\n        // 将卡片卖的钱还给卖家\n        if (this.balance >= card.sellingPrice) {\n            card.owner.transfer(card.sellingPrice);\n        }\n        card.owner = buyer;\n        card.isSelling = false;\n        card.sellingPrice = 0;\n        BuyCardEvent(cardId, true, ErrorCode.ERROR_NO_ERROR);\n    }\n\n    event SellCardEvent(uint cardId, bool isSuccess, ErrorCode errorCode);\n    // 用户卖自己的卡片给合约\n    function sellCard(uint cardId) public payable {\n        address seller = msg.sender;\n        // 判断卡片下标是否合法\n        if (cardId >= cards.length || cardId < 0) {\n            seller.transfer(msg.value);\n            SellCardEvent(cardId, false, ErrorCode.ERROR_INDEX_OUT_OF_RANGE);\n            return;\n        }\n        Card storage card = cards[cardId];\n        // 判断卖家是否为卡片拥有者\n        if (seller != card.owner) {\n            seller.transfer(msg.value);\n            SellCardEvent(cardId, false, ErrorCode.ERROR_WRONG_OWNER);\n            return;\n        }\n        if (card.isSelling) {\n            seller.transfer(msg.value);\n            SellCardEvent(cardId, false, ErrorCode.ERROR_CARD_IS_SELLING);\n            return;\n        }\n        card.isSelling = true;\n        card.sellingPrice = msg.value;\n        SellCardEvent(cardId, true, ErrorCode.ERROR_NO_ERROR);\n    }\n\n    event CancelSellCardEvent(uint cardId, bool isSuccess, ErrorCode errorCode);\n    // 用户取消出售卡片\n    function cancelSellCard(uint cardId) public {\n        // 判断卡片下标是否合法\n        if (cardId >= cards.length || cardId < 0) {\n            CancelSellCardEvent(cardId, false, ErrorCode.ERROR_INDEX_OUT_OF_RANGE);\n            return;\n        }\n        Card storage card = cards[cardId];\n        if (card.owner != msg.sender) {\n            CancelSellCardEvent(cardId, false, ErrorCode.ERROR_WRONG_OWNER);\n            return;\n        }\n        if (!card.isSelling) {\n            CancelSellCardEvent(cardId, false, ErrorCode.ERROR_CARD_IS_NOT_SELLING);\n            return;\n        }\n        msg.sender.transfer(card.sellingPrice);\n        card.isSelling = false;\n        CancelSellCardEvent(cardId, true, ErrorCode.ERROR_NO_ERROR);\n    }\n\n    event ExchangeCardEvent(uint cardId, address newOwner, bool isSucess, ErrorCode errorCode);\n    // 用户交换卡片\n    function exchangeCard(uint cardId, address otherUser) public {\n        // 判断卡片下标是否合法\n        if (cardId >= cards.length || cardId < 0) {\n            ExchangeCardEvent(cardId, card.owner, false, ErrorCode.ERROR_INDEX_OUT_OF_RANGE);      \n            return;\n        }\n        Card storage card = cards[cardId];\n        // 判断卡片拥有者\n        if (card.owner != msg.sender) {\n            ExchangeCardEvent(cardId, card.owner, false, ErrorCode.ERROR_WRONG_OWNER);\n            return;\n        }\n        // 判断卡片是否正在出售\n        if (card.isSelling) {\n            ExchangeCardEvent(cardId, card.owner, false, ErrorCode.ERROR_CARD_IS_SELLING);\n            return;\n        }\n        card.owner = otherUser;\n        ExchangeCardEvent(cardId, card.owner, true, ErrorCode.ERROR_NO_ERROR);\n    }\n\n    // 获取用户所有卡片\n    function getAllCardsForUser() public constant returns (uint[] cardIds, bytes32[] codes, uint[] values, uint len) {\n        cardIds = new uint[](cards.length);\n        codes = new bytes32[](cards.length);\n        values = new uint[](cards.length);\n        // codes = new string[](cards.length);\n        len = 0;\n        for (uint i = 0; i < cards.length; i++) {\n            if (cards[i].owner == msg.sender) {\n                cardIds[len] = cards[i].cardId;\n                codes[len] = cards[i].code;\n                values[len] = cards[i].value;\n                len++;\n            }\n        }\n    }\n\n    event CreateNewCardEvent(uint cardId, bytes32 code, address owner, uint value);\n    // 给用户掉落新卡片\n    function createNewCardForUser(bytes32 code, uint value) public {\n        Card memory card = Card({code: code, value: value, owner: msg.sender, isSelling: false, cardId: cards.length, sellingPrice: 0});\n        cards.push(card);\n        CreateNewCardEvent(card.cardId, card.code, card.owner, card.value);\n    }\n\n}",
  "sourcePath": "/Users/forrestlin/DApps/QzoneBlockPet/contracts/PetCard.sol",
  "compiler": {
    "name": "solc",
    "version": "0.4.18+commit.9cf6e910.Emscripten.clang"
  },
  "schemaVersion": "1.0.1",
  "updatedAt": "2018-01-23T08:55:53.369Z"
}