{
  "contractName": "UserCenter",
  "abi": [
    {
      "constant": false,
      "inputs": [],
      "name": "register",
      "outputs": [
        {
          "name": "",
          "type": "uint256"
        }
      ],
      "payable": false,
      "stateMutability": "nonpayable",
      "type": "function"
    },
    {
      "constant": false,
      "inputs": [],
      "name": "showAllPlayers",
      "outputs": [
        {
          "name": "",
          "type": "address[]"
        }
      ],
      "payable": false,
      "stateMutability": "nonpayable",
      "type": "function"
    },
    {
      "constant": true,
      "inputs": [
        {
          "name": "",
          "type": "uint256"
        }
      ],
      "name": "players",
      "outputs": [
        {
          "name": "",
          "type": "address"
        }
      ],
      "payable": false,
      "stateMutability": "view",
      "type": "function"
    }
  ],
  "bytecode": "0x6060604052341561000f57600080fd5b61031e8061001e6000396000f300606060405260043610610057576000357c0100000000000000000000000000000000000000000000000000000000900463ffffffff1680631aa3a0081461005c578063daa5c76414610085578063f71d96cb146100ef575b600080fd5b341561006757600080fd5b61006f610152565b6040518082815260200191505060405180910390f35b341561009057600080fd5b6100986101ba565b6040518080602001828103825283818151815260200191508051906020019060200280838360005b838110156100db5780820151818401526020810190506100c0565b505050509050019250505060405180910390f35b34156100fa57600080fd5b610110600480803590602001909190505061024e565b604051808273ffffffffffffffffffffffffffffffffffffffff1673ffffffffffffffffffffffffffffffffffffffff16815260200191505060405180910390f35b6000808054806001018281610167919061028d565b9160005260206000209001600033909190916101000a81548173ffffffffffffffffffffffffffffffffffffffff021916908373ffffffffffffffffffffffffffffffffffffffff160217905550905090565b6101c26102b9565b600080548060200260200160405190810160405280929190818152602001828054801561024457602002820191906000526020600020905b8160009054906101000a900473ffffffffffffffffffffffffffffffffffffffff1673ffffffffffffffffffffffffffffffffffffffff16815260200190600101908083116101fa575b5050505050905090565b60008181548110151561025d57fe5b90600052602060002090016000915054906101000a900473ffffffffffffffffffffffffffffffffffffffff1681565b8154818355818115116102b4578183600052602060002091820191016102b391906102cd565b5b505050565b602060405190810160405280600081525090565b6102ef91905b808211156102eb5760008160009055506001016102d3565b5090565b905600a165627a7a72305820cbe57df6055f5633dc22932b9888641653f94135bb98463e90ae12fc80a51dc40029",
  "source": "pragma solidity ^0.4.17;\n\ncontract UserCenter {\n    address[] public players;\n    function register() public returns (uint) {\n        return players.push(msg.sender);\n    }\n    function showAllPlayers() public returns (address[]) {\n        return players;\n    }\n}",
  "sourcePath": "/Users/forrestlin/DApps/QzoneBlockPet/contracts/UserCenter.sol",
  "compiler": {
    "name": "solc",
    "version": "0.4.18+commit.9cf6e910.Emscripten.clang"
  },
  "schemaVersion": "1.0.1",
  "updatedAt": "2018-01-08T14:39:05.213Z"
}