{
  "contractName": "UserCenter",
  "abi": [
    {
      "constant": false,
      "inputs": [],
      "name": "register",
      "outputs": [],
      "payable": false,
      "stateMutability": "nonpayable",
      "type": "function"
    },
    {
      "constant": true,
      "inputs": [
        {
          "name": "",
          "type": "uint256"
        }
      ],
      "name": "players",
      "outputs": [
        {
          "name": "",
          "type": "address"
        }
      ],
      "payable": false,
      "stateMutability": "view",
      "type": "function"
    }
  ],
  "bytecode": "0x6060604052341561000f57600080fd5b6101ea8061001e6000396000f30060606040526004361061004c576000357c0100000000000000000000000000000000000000000000000000000000900463ffffffff1680631aa3a00814610051578063f71d96cb14610066575b600080fd5b341561005c57600080fd5b6100646100c9565b005b341561007157600080fd5b610087600480803590602001909190505061012e565b604051808273ffffffffffffffffffffffffffffffffffffffff1673ffffffffffffffffffffffffffffffffffffffff16815260200191505060405180910390f35b600080548060010182816100dd919061016d565b9160005260206000209001600033909190916101000a81548173ffffffffffffffffffffffffffffffffffffffff021916908373ffffffffffffffffffffffffffffffffffffffff16021790555050565b60008181548110151561013d57fe5b90600052602060002090016000915054906101000a900473ffffffffffffffffffffffffffffffffffffffff1681565b815481835581811511610194578183600052602060002091820191016101939190610199565b5b505050565b6101bb91905b808211156101b757600081600090555060010161019f565b5090565b905600a165627a7a72305820cb0527c119e441e71056c7222049ae3cd7e05e71928862a3bac93f0651d1cc880029",
  "source": "pragma solidity ^0.4.17;\n\ncontract UserCenter {\n    address[] public players;\n    function register() public {\n        players.push(msg.sender);\n    }\n\n}",
  "sourcePath": "/Users/forrestlin/DApps/QzoneBlockPet/contracts/UserCenter.sol",
  "compiler": {
    "name": "solc",
    "version": "0.4.18+commit.9cf6e910.Emscripten.clang"
  },
  "schemaVersion": "1.0.1",
  "updatedAt": "2018-01-08T13:25:11.354Z"
}